{
  "_format": "hh-sol-artifact-1",
  "contractName": "DigitalHealthPassport",
  "sourceName": "contracts/DigitalHealthPassport.sol",
  "abi": [
    {
      "inputs": [],
      "stateMutability": "nonpayable",
      "type": "constructor"
    },
    {
      "anonymous": false,
      "inputs": [
        {
          "indexed": true,
          "internalType": "address",
          "name": "doctor",
          "type": "address"
        },
        {
          "indexed": true,
          "internalType": "address",
          "name": "authorizer",
          "type": "address"
        }
      ],
      "name": "DoctorAuthorized",
      "type": "event"
    },
    {
      "anonymous": false,
      "inputs": [
        {
          "indexed": true,
          "internalType": "address",
          "name": "doctor",
          "type": "address"
        },
        {
          "indexed": true,
          "internalType": "address",
          "name": "revoker",
          "type": "address"
        }
      ],
      "name": "DoctorRevoked",
      "type": "event"
    },
    {
      "anonymous": false,
      "inputs": [
        {
          "indexed": true,
          "internalType": "uint256",
          "name": "recordId",
          "type": "uint256"
        },
        {
          "indexed": true,
          "internalType": "address",
          "name": "patient",
          "type": "address"
        },
        {
          "indexed": false,
          "internalType": "string",
          "name": "ipfsHash",
          "type": "string"
        },
        {
          "indexed": false,
          "internalType": "string",
          "name": "recordType",
          "type": "string"
        },
        {
          "indexed": false,
          "internalType": "uint256",
          "name": "timestamp",
          "type": "uint256"
        }
      ],
      "name": "HealthRecordAdded",
      "type": "event"
    },
    {
      "anonymous": false,
      "inputs": [
        {
          "indexed": true,
          "internalType": "bytes32",
          "name": "role",
          "type": "bytes32"
        },
        {
          "indexed": true,
          "internalType": "bytes32",
          "name": "previousAdminRole",
          "type": "bytes32"
        },
        {
          "indexed": true,
          "internalType": "bytes32",
          "name": "newAdminRole",
          "type": "bytes32"
        }
      ],
      "name": "RoleAdminChanged",
      "type": "event"
    },
    {
      "anonymous": false,
      "inputs": [
        {
          "indexed": true,
          "internalType": "bytes32",
          "name": "role",
          "type": "bytes32"
        },
        {
          "indexed": true,
          "internalType": "address",
          "name": "account",
          "type": "address"
        },
        {
          "indexed": true,
          "internalType": "address",
          "name": "sender",
          "type": "address"
        }
      ],
      "name": "RoleGranted",
      "type": "event"
    },
    {
      "anonymous": false,
      "inputs": [
        {
          "indexed": true,
          "internalType": "bytes32",
          "name": "role",
          "type": "bytes32"
        },
        {
          "indexed": true,
          "internalType": "address",
          "name": "account",
          "type": "address"
        },
        {
          "indexed": true,
          "internalType": "address",
          "name": "sender",
          "type": "address"
        }
      ],
      "name": "RoleRevoked",
      "type": "event"
    },
    {
      "inputs": [],
      "name": "ADMIN_ROLE",
      "outputs": [
        {
          "internalType": "bytes32",
          "name": "",
          "type": "bytes32"
        }
      ],
      "stateMutability": "view",
      "type": "function"
    },
    {
      "inputs": [],
      "name": "DEFAULT_ADMIN_ROLE",
      "outputs": [
        {
          "internalType": "bytes32",
          "name": "",
          "type": "bytes32"
        }
      ],
      "stateMutability": "view",
      "type": "function"
    },
    {
      "inputs": [],
      "name": "EMERGENCY_DOCTOR_ROLE",
      "outputs": [
        {
          "internalType": "bytes32",
          "name": "",
          "type": "bytes32"
        }
      ],
      "stateMutability": "view",
      "type": "function"
    },
    {
      "inputs": [
        {
          "internalType": "address",
          "name": "patient",
          "type": "address"
        },
        {
          "internalType": "string",
          "name": "ipfsHash",
          "type": "string"
        },
        {
          "internalType": "string",
          "name": "recordType",
          "type": "string"
        }
      ],
      "name": "addHealthRecord",
      "outputs": [
        {
          "internalType": "uint256",
          "name": "",
          "type": "uint256"
        }
      ],
      "stateMutability": "nonpayable",
      "type": "function"
    },
    {
      "inputs": [
        {
          "internalType": "address",
          "name": "doctor",
          "type": "address"
        }
      ],
      "name": "authorizeDoctorEmergencyAccess",
      "outputs": [],
      "stateMutability": "nonpayable",
      "type": "function"
    },
    {
      "inputs": [
        {
          "internalType": "address",
          "name": "",
          "type": "address"
        }
      ],
      "name": "authorizedDoctors",
      "outputs": [
        {
          "internalType": "bool",
          "name": "",
          "type": "bool"
        }
      ],
      "stateMutability": "view",
      "type": "function"
    },
    {
      "inputs": [
        {
          "internalType": "uint256",
          "name": "recordId",
          "type": "uint256"
        }
      ],
      "name": "getHealthRecord",
      "outputs": [
        {
          "components": [
            {
              "internalType": "uint256",
              "name": "recordId",
              "type": "uint256"
            },
            {
              "internalType": "address",
              "name": "patientAddress",
              "type": "address"
            },
            {
              "internalType": "string",
              "name": "ipfsHash",
              "type": "string"
            },
            {
              "internalType": "uint256",
              "name": "timestamp",
              "type": "uint256"
            },
            {
              "internalType": "string",
              "name": "recordType",
              "type": "string"
            },
            {
              "internalType": "bool",
              "name": "isActive",
              "type": "bool"
            }
          ],
          "internalType": "struct DigitalHealthPassport.HealthRecord",
          "name": "",
          "type": "tuple"
        }
      ],
      "stateMutability": "view",
      "type": "function"
    },
    {
      "inputs": [
        {
          "internalType": "uint256[]",
          "name": "recordIds",
          "type": "uint256[]"
        }
      ],
      "name": "getHealthRecords",
      "outputs": [
        {
          "components": [
            {
              "internalType": "uint256",
              "name": "recordId",
              "type": "uint256"
            },
            {
              "internalType": "address",
              "name": "patientAddress",
              "type": "address"
            },
            {
              "internalType": "string",
              "name": "ipfsHash",
              "type": "string"
            },
            {
              "internalType": "uint256",
              "name": "timestamp",
              "type": "uint256"
            },
            {
              "internalType": "string",
              "name": "recordType",
              "type": "string"
            },
            {
              "internalType": "bool",
              "name": "isActive",
              "type": "bool"
            }
          ],
          "internalType": "struct DigitalHealthPassport.HealthRecord[]",
          "name": "",
          "type": "tuple[]"
        }
      ],
      "stateMutability": "view",
      "type": "function"
    },
    {
      "inputs": [
        {
          "internalType": "address",
          "name": "patient",
          "type": "address"
        }
      ],
      "name": "getPatientRecordIds",
      "outputs": [
        {
          "internalType": "uint256[]",
          "name": "",
          "type": "uint256[]"
        }
      ],
      "stateMutability": "view",
      "type": "function"
    },
    {
      "inputs": [
        {
          "internalType": "bytes32",
          "name": "role",
          "type": "bytes32"
        }
      ],
      "name": "getRoleAdmin",
      "outputs": [
        {
          "internalType": "bytes32",
          "name": "",
          "type": "bytes32"
        }
      ],
      "stateMutability": "view",
      "type": "function"
    },
    {
      "inputs": [],
      "name": "getTotalRecords",
      "outputs": [
        {
          "internalType": "uint256",
          "name": "",
          "type": "uint256"
        }
      ],
      "stateMutability": "view",
      "type": "function"
    },
    {
      "inputs": [
        {
          "internalType": "bytes32",
          "name": "role",
          "type": "bytes32"
        },
        {
          "internalType": "address",
          "name": "account",
          "type": "address"
        }
      ],
      "name": "grantRole",
      "outputs": [],
      "stateMutability": "nonpayable",
      "type": "function"
    },
    {
      "inputs": [
        {
          "internalType": "address",
          "name": "doctor",
          "type": "address"
        }
      ],
      "name": "hasEmergencyAccess",
      "outputs": [
        {
          "internalType": "bool",
          "name": "",
          "type": "bool"
        }
      ],
      "stateMutability": "view",
      "type": "function"
    },
    {
      "inputs": [
        {
          "internalType": "bytes32",
          "name": "role",
          "type": "bytes32"
        },
        {
          "internalType": "address",
          "name": "account",
          "type": "address"
        }
      ],
      "name": "hasRole",
      "outputs": [
        {
          "internalType": "bool",
          "name": "",
          "type": "bool"
        }
      ],
      "stateMutability": "view",
      "type": "function"
    },
    {
      "inputs": [
        {
          "internalType": "uint256",
          "name": "",
          "type": "uint256"
        }
      ],
      "name": "healthRecords",
      "outputs": [
        {
          "internalType": "uint256",
          "name": "recordId",
          "type": "uint256"
        },
        {
          "internalType": "address",
          "name": "patientAddress",
          "type": "address"
        },
        {
          "internalType": "string",
          "name": "ipfsHash",
          "type": "string"
        },
        {
          "internalType": "uint256",
          "name": "timestamp",
          "type": "uint256"
        },
        {
          "internalType": "string",
          "name": "recordType",
          "type": "string"
        },
        {
          "internalType": "bool",
          "name": "isActive",
          "type": "bool"
        }
      ],
      "stateMutability": "view",
      "type": "function"
    },
    {
      "inputs": [
        {
          "internalType": "address",
          "name": "",
          "type": "address"
        },
        {
          "internalType": "uint256",
          "name": "",
          "type": "uint256"
        }
      ],
      "name": "patientRecords",
      "outputs": [
        {
          "internalType": "uint256",
          "name": "",
          "type": "uint256"
        }
      ],
      "stateMutability": "view",
      "type": "function"
    },
    {
      "inputs": [
        {
          "internalType": "bytes32",
          "name": "role",
          "type": "bytes32"
        },
        {
          "internalType": "address",
          "name": "account",
          "type": "address"
        }
      ],
      "name": "renounceRole",
      "outputs": [],
      "stateMutability": "nonpayable",
      "type": "function"
    },
    {
      "inputs": [
        {
          "internalType": "address",
          "name": "doctor",
          "type": "address"
        }
      ],
      "name": "revokeDoctorEmergencyAccess",
      "outputs": [],
      "stateMutability": "nonpayable",
      "type": "function"
    },
    {
      "inputs": [
        {
          "internalType": "bytes32",
          "name": "role",
          "type": "bytes32"
        },
        {
          "internalType": "address",
          "name": "account",
          "type": "address"
        }
      ],
      "name": "revokeRole",
      "outputs": [],
      "stateMutability": "nonpayable",
      "type": "function"
    },
    {
      "inputs": [
        {
          "internalType": "bytes4",
          "name": "interfaceId",
          "type": "bytes4"
        }
      ],
      "name": "supportsInterface",
      "outputs": [
        {
          "internalType": "bool",
          "name": "",
          "type": "bool"
        }
      ],
      "stateMutability": "view",
      "type": "function"
    }
  ],
  "bytecode": "0x608060405234801561001057600080fd5b506001805561002060003361004f565b61004a7fa49807205ce4d355092ef5a8a18f56e8913cf4a201fbe287825b095693c217753361004f565b6100ee565b6000828152602081815260408083206001600160a01b038516845290915290205460ff166100ea576000828152602081815260408083206001600160a01b03851684529091529020805460ff191660011790556100a93390565b6001600160a01b0316816001600160a01b0316837f2f8788117e7eff1d82e926ec794901d17c78024a50270940304540a733656f0d60405160405180910390a45b5050565b611ba480620000fe6000396000f3fe608060405234801561001057600080fd5b506004361061012c5760003560e01c806391d14854116100ad578063cb8bc3da11610071578063cb8bc3da146102ab578063d012f59a146102cb578063d2c60604146102de578063d547741f146102f1578063ed472b2e1461030457600080fd5b806391d148541461024557806394f0df6114610258578063a217fddf1461026b578063b665c0d314610273578063ca184c111461029857600080fd5b806336568abe116100f457806336568abe146101ca5780636248204e146101dd57806375b238fc146101fd5780637b3cb0fb14610212578063839e87621461022557600080fd5b806301ffc9a7146101315780630aeacb5e14610159578063248a9ca31461016f5780632d3975f0146101925780632f2ff15d146101b5575b600080fd5b61014461013f366004611410565b610319565b60405190151581526020015b60405180910390f35b610161610350565b604051908152602001610150565b61016161017d36600461143a565b60009081526020819052604090206001015490565b6101446101a036600461146f565b60056020526000908152604090205460ff1681565b6101c86101c336600461148a565b610360565b005b6101c86101d836600461148a565b61038a565b6101f06101eb36600461146f565b61040d565b60405161015091906114b6565b610161600080516020611b4f83398151915281565b6101616102203660046115b1565b61051e565b61023861023336600461143a565b61077a565b60405161015091906116e2565b61014461025336600461148a565b6109f7565b6101616102663660046116f5565b610a20565b610161600081565b61028661028136600461143a565b610a51565b6040516101509695949392919061171f565b6101446102a636600461146f565b610ba3565b6102be6102b9366004611777565b610bbd565b604051610150919061181d565b6101c86102d936600461146f565b610f02565b6101c86102ec36600461146f565b610fa6565b6101c86102ff36600461148a565b61104d565b610161600080516020611b2f83398151915281565b60006001600160e01b03198216637965db0b60e01b148061034a57506301ffc9a760e01b6001600160e01b03198316145b92915050565b600061035b60025490565b905090565b60008281526020819052604090206001015461037b81611072565b610385838361107f565b505050565b6001600160a01b03811633146103ff5760405162461bcd60e51b815260206004820152602f60248201527f416363657373436f6e74726f6c3a2063616e206f6e6c792072656e6f756e636560448201526e103937b632b9903337b91039b2b63360891b60648201526084015b60405180910390fd5b6104098282611103565b5050565b606081336001600160a01b038216148061043a575061043a600080516020611b2f833981519152336109f7565b806104585750610458600080516020611b4f833981519152336109f7565b6104b25760405162461bcd60e51b815260206004820152602560248201527f556e617574686f72697a65642061636365737320746f206865616c7468207265604482015264636f72647360d81b60648201526084016103f6565b6001600160a01b0383166000908152600460209081526040918290208054835181840281018401909452808452909183018282801561051057602002820191906000526020600020905b8154815260200190600101908083116104fc575b505050505091505b50919050565b6000836001600160a01b0381166105475760405162461bcd60e51b81526004016103f69061187f565b8360008151116105995760405162461bcd60e51b815260206004820152601960248201527f4950465320686173682063616e6e6f7420626520656d7074790000000000000060448201526064016103f6565b6105a1611168565b336001600160a01b03871614806105cb57506105cb600080516020611b4f833981519152336109f7565b6106255760405162461bcd60e51b815260206004820152602560248201527f4f6e6c792070617469656e74206f722061646d696e2063616e20616464207265604482015264636f72647360d81b60648201526084016103f6565b610633600280546001019055565b600061063e60025490565b6040805160c0810182528281526001600160a01b038a811660208084019182528385018c8152426060860152608085018c9052600160a08601819052600088815260039093529590912084518155915194820180546001600160a01b031916959093169490941790915591519293509182919060028201906106c0908261192a565b5060608201516003820155608082015160048201906106df908261192a565b5060a091909101516005909101805460ff19169115159190911790556001600160a01b0388166000818152600460209081526040808320805460018101825590845291909220018490555183907f7d219b880993ff552e97d9d35b63d53daac55d004541a3699a8a345c4fb1f34f9061075d908b908b9042906119ea565b60405180910390a350925061077160018055565b50509392505050565b6107826113cf565b6000828152600360209081526040808320815160c0810183528154815260018201546001600160a01b03169381019390935260028101805491928401916107c8906118a8565b80601f01602080910402602001604051908101604052809291908181526020018280546107f4906118a8565b80156108415780601f1061081657610100808354040283529160200191610841565b820191906000526020600020905b81548152906001019060200180831161082457829003601f168201915b5050505050815260200160038201548152602001600482018054610864906118a8565b80601f0160208091040260200160405190810160405280929190818152602001828054610890906118a8565b80156108dd5780601f106108b2576101008083540402835291602001916108dd565b820191906000526020600020905b8154815290600101906020018083116108c057829003601f168201915b50505091835250506005919091015460ff16151560209091015260a081015190915061094b5760405162461bcd60e51b815260206004820152601c60248201527f5265636f7264206e6f7420666f756e64206f7220696e6163746976650000000060448201526064016103f6565b80602001516001600160a01b0316336001600160a01b031614806109825750610982600080516020611b2f833981519152336109f7565b806109a057506109a0600080516020611b4f833981519152336109f7565b61034a5760405162461bcd60e51b815260206004820152602260248201527f556e617574686f72697a65642061636365737320746f2074686973207265636f6044820152611c9960f21b60648201526084016103f6565b6000918252602082815260408084206001600160a01b0393909316845291905290205460ff1690565b60046020528160005260406000208181548110610a3c57600080fd5b90600052602060002001600091509150505481565b60036020526000908152604090208054600182015460028301805492936001600160a01b0390921692610a83906118a8565b80601f0160208091040260200160405190810160405280929190818152602001828054610aaf906118a8565b8015610afc5780601f10610ad157610100808354040283529160200191610afc565b820191906000526020600020905b815481529060010190602001808311610adf57829003601f168201915b505050505090806003015490806004018054610b17906118a8565b80601f0160208091040260200160405190810160405280929190818152602001828054610b43906118a8565b8015610b905780601f10610b6557610100808354040283529160200191610b90565b820191906000526020600020905b815481529060010190602001808311610b7357829003601f168201915b5050506005909301549192505060ff1686565b600061034a600080516020611b2f833981519152836109f7565b60606000825167ffffffffffffffff811115610bdb57610bdb6114fa565b604051908082528060200260200182016040528015610c1457816020015b610c016113cf565b815260200190600190039081610bf95790505b50905060005b8351811015610efb57600060036000868481518110610c3b57610c3b611a20565b602002602001015181526020019081526020016000206040518060c0016040529081600082015481526020016001820160009054906101000a90046001600160a01b03166001600160a01b03166001600160a01b03168152602001600282018054610ca5906118a8565b80601f0160208091040260200160405190810160405280929190818152602001828054610cd1906118a8565b8015610d1e5780601f10610cf357610100808354040283529160200191610d1e565b820191906000526020600020905b815481529060010190602001808311610d0157829003601f168201915b5050505050815260200160038201548152602001600482018054610d41906118a8565b80601f0160208091040260200160405190810160405280929190818152602001828054610d6d906118a8565b8015610dba5780601f10610d8f57610100808354040283529160200191610dba565b820191906000526020600020905b815481529060010190602001808311610d9d57829003601f168201915b50505091835250506005919091015460ff16151560209091015260a0810151909150610e285760405162461bcd60e51b815260206004820152601d60248201527f4f6e65206f72206d6f7265207265636f726473206e6f7420666f756e6400000060448201526064016103f6565b80602001516001600160a01b0316336001600160a01b03161480610e5f5750610e5f600080516020611b2f833981519152336109f7565b80610e7d5750610e7d600080516020611b4f833981519152336109f7565b610ec95760405162461bcd60e51b815260206004820152601e60248201527f556e617574686f72697a65642061636365737320746f207265636f726473000060448201526064016103f6565b80838381518110610edc57610edc611a20565b6020026020010181905250508080610ef390611a4c565b915050610c1a565b5092915050565b600080516020611b4f833981519152610f1a81611072565b816001600160a01b038116610f415760405162461bcd60e51b81526004016103f69061187f565b610f59600080516020611b2f83398151915284611103565b6001600160a01b038316600081815260056020526040808220805460ff19169055513392917f22e403d2e970c47bf0c5435d7205c5c4a749bed24f61717475622bb9886fb48a91a3505050565b600080516020611b4f833981519152610fbe81611072565b816001600160a01b038116610fe55760405162461bcd60e51b81526004016103f69061187f565b610ffd600080516020611b2f8339815191528461107f565b6001600160a01b038316600081815260056020526040808220805460ff19166001179055513392917fc3255872421c54a1c27c56c4517b663cfbf7024ebaf3b96a1b3edd4f1a41c39e91a3505050565b60008281526020819052604090206001015461106881611072565b6103858383611103565b61107c81336111c1565b50565b61108982826109f7565b610409576000828152602081815260408083206001600160a01b03851684529091529020805460ff191660011790556110bf3390565b6001600160a01b0316816001600160a01b0316837f2f8788117e7eff1d82e926ec794901d17c78024a50270940304540a733656f0d60405160405180910390a45050565b61110d82826109f7565b15610409576000828152602081815260408083206001600160a01b0385168085529252808320805460ff1916905551339285917ff6391f5c32d9c69d2a47ea670b442974b53935d1edc7fd64eb21e047a839171b9190a45050565b6002600154036111ba5760405162461bcd60e51b815260206004820152601f60248201527f5265656e7472616e637947756172643a207265656e7472616e742063616c6c0060448201526064016103f6565b6002600155565b6111cb82826109f7565b610409576111d88161121a565b6111e383602061122c565b6040516020016111f4929190611a65565b60408051601f198184030181529082905262461bcd60e51b82526103f691600401611ada565b606061034a6001600160a01b03831660145b6060600061123b836002611aed565b611246906002611b04565b67ffffffffffffffff81111561125e5761125e6114fa565b6040519080825280601f01601f191660200182016040528015611288576020820181803683370190505b509050600360fc1b816000815181106112a3576112a3611a20565b60200101906001600160f81b031916908160001a905350600f60fb1b816001815181106112d2576112d2611a20565b60200101906001600160f81b031916908160001a90535060006112f6846002611aed565b611301906001611b04565b90505b6001811115611379576f181899199a1a9b1b9c1cb0b131b232b360811b85600f166010811061133557611335611a20565b1a60f81b82828151811061134b5761134b611a20565b60200101906001600160f81b031916908160001a90535060049490941c9361137281611b17565b9050611304565b5083156113c85760405162461bcd60e51b815260206004820181905260248201527f537472696e67733a20686578206c656e67746820696e73756666696369656e7460448201526064016103f6565b9392505050565b6040518060c001604052806000815260200160006001600160a01b031681526020016060815260200160008152602001606081526020016000151581525090565b60006020828403121561142257600080fd5b81356001600160e01b0319811681146113c857600080fd5b60006020828403121561144c57600080fd5b5035919050565b80356001600160a01b038116811461146a57600080fd5b919050565b60006020828403121561148157600080fd5b6113c882611453565b6000806040838503121561149d57600080fd5b823591506114ad60208401611453565b90509250929050565b6020808252825182820181905260009190848201906040850190845b818110156114ee578351835292840192918401916001016114d2565b50909695505050505050565b634e487b7160e01b600052604160045260246000fd5b604051601f8201601f1916810167ffffffffffffffff81118282101715611539576115396114fa565b604052919050565b600082601f83011261155257600080fd5b813567ffffffffffffffff81111561156c5761156c6114fa565b61157f601f8201601f1916602001611510565b81815284602083860101111561159457600080fd5b816020850160208301376000918101602001919091529392505050565b6000806000606084860312156115c657600080fd5b6115cf84611453565b9250602084013567ffffffffffffffff808211156115ec57600080fd5b6115f887838801611541565b9350604086013591508082111561160e57600080fd5b5061161b86828701611541565b9150509250925092565b60005b83811015611640578181015183820152602001611628565b50506000910152565b60008151808452611661816020860160208601611625565b601f01601f19169290920160200192915050565b8051825260018060a01b0360208201511660208301526000604082015160c060408501526116a660c0850182611649565b905060608301516060850152608083015184820360808601526116c98282611649565b91505060a0830151151560a08501528091505092915050565b6020815260006113c86020830184611675565b6000806040838503121561170857600080fd5b61171183611453565b946020939093013593505050565b8681526001600160a01b038616602082015260c06040820181905260009061174990830187611649565b85606084015282810360808401526117618186611649565b91505082151560a0830152979650505050505050565b6000602080838503121561178a57600080fd5b823567ffffffffffffffff808211156117a257600080fd5b818501915085601f8301126117b657600080fd5b8135818111156117c8576117c86114fa565b8060051b91506117d9848301611510565b81815291830184019184810190888411156117f357600080fd5b938501935b83851015611811578435825293850193908501906117f8565b98975050505050505050565b6000602080830181845280855180835260408601915060408160051b870101925083870160005b8281101561187257603f19888603018452611860858351611675565b94509285019290850190600101611844565b5092979650505050505050565b6020808252600f908201526e496e76616c6964206164647265737360881b604082015260600190565b600181811c908216806118bc57607f821691505b60208210810361051857634e487b7160e01b600052602260045260246000fd5b601f82111561038557600081815260208120601f850160051c810160208610156119035750805b601f850160051c820191505b818110156119225782815560010161190f565b505050505050565b815167ffffffffffffffff811115611944576119446114fa565b6119588161195284546118a8565b846118dc565b602080601f83116001811461198d57600084156119755750858301515b600019600386901b1c1916600185901b178555611922565b600085815260208120601f198616915b828110156119bc5788860151825594840194600190910190840161199d565b50858210156119da5787850151600019600388901b60f8161c191681555b5050505050600190811b01905550565b6060815260006119fd6060830186611649565b8281036020840152611a0f8186611649565b915050826040830152949350505050565b634e487b7160e01b600052603260045260246000fd5b634e487b7160e01b600052601160045260246000fd5b600060018201611a5e57611a5e611a36565b5060010190565b7f416363657373436f6e74726f6c3a206163636f756e7420000000000000000000815260008351611a9d816017850160208801611625565b7001034b99036b4b9b9b4b733903937b6329607d1b6017918401918201528351611ace816028840160208801611625565b01602801949350505050565b6020815260006113c86020830184611649565b808202811582820484141761034a5761034a611a36565b8082018082111561034a5761034a611a36565b600081611b2657611b26611a36565b50600019019056fe25921593b69f76f6632e88e7b93453ab776f4defef26d920f689e4ca649f3ae6a49807205ce4d355092ef5a8a18f56e8913cf4a201fbe287825b095693c21775a2646970667358221220954c148f1443e29de1d8637f51c29368f8211d369590aeebb8ed80a57f2a628264736f6c63430008130033",
  "linkReferences": {},
  "deployedLinkReferences": {}
}