{
  "_format": "hh-sol-artifact-1",
  "contractName": "DRSTCoin",
  "sourceName": "contracts/DRSTCoin.sol",
  "abi": [
    {
      "inputs": [],
      "stateMutability": "nonpayable",
      "type": "constructor"
    },
    {
      "anonymous": false,
      "inputs": [
        {
          "indexed": true,
          "internalType": "address",
          "name": "owner",
          "type": "address"
        },
        {
          "indexed": true,
          "internalType": "address",
          "name": "spender",
          "type": "address"
        },
        {
          "indexed": false,
          "internalType": "uint256",
          "name": "value",
          "type": "uint256"
        }
      ],
      "name": "Approval",
      "type": "event"
    },
    {
      "anonymous": false,
      "inputs": [
        {
          "indexed": true,
          "internalType": "address",
          "name": "user",
          "type": "address"
        },
        {
          "indexed": false,
          "internalType": "uint256",
          "name": "tokensSpent",
          "type": "uint256"
        },
        {
          "indexed": false,
          "internalType": "uint256",
          "name": "discountPercent",
          "type": "uint256"
        }
      ],
      "name": "DiscountApplied",
      "type": "event"
    },
    {
      "anonymous": false,
      "inputs": [
        {
          "indexed": false,
          "internalType": "address",
          "name": "account",
          "type": "address"
        }
      ],
      "name": "Paused",
      "type": "event"
    },
    {
      "anonymous": false,
      "inputs": [
        {
          "indexed": true,
          "internalType": "address",
          "name": "user",
          "type": "address"
        },
        {
          "indexed": false,
          "internalType": "uint256",
          "name": "amount",
          "type": "uint256"
        },
        {
          "indexed": false,
          "internalType": "string",
          "name": "activityType",
          "type": "string"
        }
      ],
      "name": "RewardMinted",
      "type": "event"
    },
    {
      "anonymous": false,
      "inputs": [
        {
          "indexed": true,
          "internalType": "bytes32",
          "name": "role",
          "type": "bytes32"
        },
        {
          "indexed": true,
          "internalType": "bytes32",
          "name": "previousAdminRole",
          "type": "bytes32"
        },
        {
          "indexed": true,
          "internalType": "bytes32",
          "name": "newAdminRole",
          "type": "bytes32"
        }
      ],
      "name": "RoleAdminChanged",
      "type": "event"
    },
    {
      "anonymous": false,
      "inputs": [
        {
          "indexed": true,
          "internalType": "bytes32",
          "name": "role",
          "type": "bytes32"
        },
        {
          "indexed": true,
          "internalType": "address",
          "name": "account",
          "type": "address"
        },
        {
          "indexed": true,
          "internalType": "address",
          "name": "sender",
          "type": "address"
        }
      ],
      "name": "RoleGranted",
      "type": "event"
    },
    {
      "anonymous": false,
      "inputs": [
        {
          "indexed": true,
          "internalType": "bytes32",
          "name": "role",
          "type": "bytes32"
        },
        {
          "indexed": true,
          "internalType": "address",
          "name": "account",
          "type": "address"
        },
        {
          "indexed": true,
          "internalType": "address",
          "name": "sender",
          "type": "address"
        }
      ],
      "name": "RoleRevoked",
      "type": "event"
    },
    {
      "anonymous": false,
      "inputs": [
        {
          "indexed": true,
          "internalType": "address",
          "name": "user",
          "type": "address"
        },
        {
          "indexed": false,
          "internalType": "uint256",
          "name": "amount",
          "type": "uint256"
        },
        {
          "indexed": false,
          "internalType": "string",
          "name": "purpose",
          "type": "string"
        }
      ],
      "name": "TokensRedeemed",
      "type": "event"
    },
    {
      "anonymous": false,
      "inputs": [
        {
          "indexed": true,
          "internalType": "address",
          "name": "from",
          "type": "address"
        },
        {
          "indexed": true,
          "internalType": "address",
          "name": "to",
          "type": "address"
        },
        {
          "indexed": false,
          "internalType": "uint256",
          "name": "value",
          "type": "uint256"
        }
      ],
      "name": "Transfer",
      "type": "event"
    },
    {
      "anonymous": false,
      "inputs": [
        {
          "indexed": false,
          "internalType": "address",
          "name": "account",
          "type": "address"
        }
      ],
      "name": "Unpaused",
      "type": "event"
    },
    {
      "inputs": [],
      "name": "ADMIN_ROLE",
      "outputs": [
        {
          "internalType": "bytes32",
          "name": "",
          "type": "bytes32"
        }
      ],
      "stateMutability": "view",
      "type": "function"
    },
    {
      "inputs": [],
      "name": "DAILY_EXERCISE_REWARD",
      "outputs": [
        {
          "internalType": "uint256",
          "name": "",
          "type": "uint256"
        }
      ],
      "stateMutability": "view",
      "type": "function"
    },
    {
      "inputs": [],
      "name": "DEFAULT_ADMIN_ROLE",
      "outputs": [
        {
          "internalType": "bytes32",
          "name": "",
          "type": "bytes32"
        }
      ],
      "stateMutability": "view",
      "type": "function"
    },
    {
      "inputs": [],
      "name": "DISCOUNT_RATE",
      "outputs": [
        {
          "internalType": "uint256",
          "name": "",
          "type": "uint256"
        }
      ],
      "stateMutability": "view",
      "type": "function"
    },
    {
      "inputs": [],
      "name": "EYE_TEST_REWARD",
      "outputs": [
        {
          "internalType": "uint256",
          "name": "",
          "type": "uint256"
        }
      ],
      "stateMutability": "view",
      "type": "function"
    },
    {
      "inputs": [],
      "name": "FAMILY_MEMBER_REWARD",
      "outputs": [
        {
          "internalType": "uint256",
          "name": "",
          "type": "uint256"
        }
      ],
      "stateMutability": "view",
      "type": "function"
    },
    {
      "inputs": [],
      "name": "MINTER_ROLE",
      "outputs": [
        {
          "internalType": "bytes32",
          "name": "",
          "type": "bytes32"
        }
      ],
      "stateMutability": "view",
      "type": "function"
    },
    {
      "inputs": [],
      "name": "PAUSER_ROLE",
      "outputs": [
        {
          "internalType": "bytes32",
          "name": "",
          "type": "bytes32"
        }
      ],
      "stateMutability": "view",
      "type": "function"
    },
    {
      "inputs": [
        {
          "internalType": "address",
          "name": "owner",
          "type": "address"
        },
        {
          "internalType": "address",
          "name": "spender",
          "type": "address"
        }
      ],
      "name": "allowance",
      "outputs": [
        {
          "internalType": "uint256",
          "name": "",
          "type": "uint256"
        }
      ],
      "stateMutability": "view",
      "type": "function"
    },
    {
      "inputs": [
        {
          "internalType": "address",
          "name": "spender",
          "type": "address"
        },
        {
          "internalType": "uint256",
          "name": "amount",
          "type": "uint256"
        }
      ],
      "name": "approve",
      "outputs": [
        {
          "internalType": "bool",
          "name": "",
          "type": "bool"
        }
      ],
      "stateMutability": "nonpayable",
      "type": "function"
    },
    {
      "inputs": [
        {
          "internalType": "address",
          "name": "account",
          "type": "address"
        }
      ],
      "name": "balanceOf",
      "outputs": [
        {
          "internalType": "uint256",
          "name": "",
          "type": "uint256"
        }
      ],
      "stateMutability": "view",
      "type": "function"
    },
    {
      "inputs": [
        {
          "internalType": "uint256",
          "name": "amount",
          "type": "uint256"
        }
      ],
      "name": "burn",
      "outputs": [],
      "stateMutability": "nonpayable",
      "type": "function"
    },
    {
      "inputs": [
        {
          "internalType": "address",
          "name": "account",
          "type": "address"
        },
        {
          "internalType": "uint256",
          "name": "amount",
          "type": "uint256"
        }
      ],
      "name": "burnFrom",
      "outputs": [],
      "stateMutability": "nonpayable",
      "type": "function"
    },
    {
      "inputs": [
        {
          "internalType": "address",
          "name": "user",
          "type": "address"
        }
      ],
      "name": "canDoExerciseToday",
      "outputs": [
        {
          "internalType": "bool",
          "name": "canExercise",
          "type": "bool"
        }
      ],
      "stateMutability": "view",
      "type": "function"
    },
    {
      "inputs": [],
      "name": "decimals",
      "outputs": [
        {
          "internalType": "uint8",
          "name": "",
          "type": "uint8"
        }
      ],
      "stateMutability": "view",
      "type": "function"
    },
    {
      "inputs": [
        {
          "internalType": "address",
          "name": "spender",
          "type": "address"
        },
        {
          "internalType": "uint256",
          "name": "subtractedValue",
          "type": "uint256"
        }
      ],
      "name": "decreaseAllowance",
      "outputs": [
        {
          "internalType": "bool",
          "name": "",
          "type": "bool"
        }
      ],
      "stateMutability": "nonpayable",
      "type": "function"
    },
    {
      "inputs": [
        {
          "internalType": "address",
          "name": "",
          "type": "address"
        }
      ],
      "name": "discountBalance",
      "outputs": [
        {
          "internalType": "uint256",
          "name": "",
          "type": "uint256"
        }
      ],
      "stateMutability": "view",
      "type": "function"
    },
    {
      "inputs": [
        {
          "internalType": "address",
          "name": "",
          "type": "address"
        }
      ],
      "name": "familyMembersAdded",
      "outputs": [
        {
          "internalType": "uint256",
          "name": "",
          "type": "uint256"
        }
      ],
      "stateMutability": "view",
      "type": "function"
    },
    {
      "inputs": [
        {
          "internalType": "bytes32",
          "name": "role",
          "type": "bytes32"
        }
      ],
      "name": "getRoleAdmin",
      "outputs": [
        {
          "internalType": "bytes32",
          "name": "",
          "type": "bytes32"
        }
      ],
      "stateMutability": "view",
      "type": "function"
    },
    {
      "inputs": [
        {
          "internalType": "address",
          "name": "user",
          "type": "address"
        }
      ],
      "name": "getUserStats",
      "outputs": [
        {
          "internalType": "uint256",
          "name": "eyeTests",
          "type": "uint256"
        },
        {
          "internalType": "uint256",
          "name": "exercises",
          "type": "uint256"
        },
        {
          "internalType": "uint256",
          "name": "familyMembers",
          "type": "uint256"
        },
        {
          "internalType": "uint256",
          "name": "availableDiscount",
          "type": "uint256"
        }
      ],
      "stateMutability": "view",
      "type": "function"
    },
    {
      "inputs": [
        {
          "internalType": "bytes32",
          "name": "role",
          "type": "bytes32"
        },
        {
          "internalType": "address",
          "name": "account",
          "type": "address"
        }
      ],
      "name": "grantRole",
      "outputs": [],
      "stateMutability": "nonpayable",
      "type": "function"
    },
    {
      "inputs": [
        {
          "internalType": "bytes32",
          "name": "role",
          "type": "bytes32"
        },
        {
          "internalType": "address",
          "name": "account",
          "type": "address"
        }
      ],
      "name": "hasRole",
      "outputs": [
        {
          "internalType": "bool",
          "name": "",
          "type": "bool"
        }
      ],
      "stateMutability": "view",
      "type": "function"
    },
    {
      "inputs": [
        {
          "internalType": "address",
          "name": "spender",
          "type": "address"
        },
        {
          "internalType": "uint256",
          "name": "addedValue",
          "type": "uint256"
        }
      ],
      "name": "increaseAllowance",
      "outputs": [
        {
          "internalType": "bool",
          "name": "",
          "type": "bool"
        }
      ],
      "stateMutability": "nonpayable",
      "type": "function"
    },
    {
      "inputs": [
        {
          "internalType": "address",
          "name": "",
          "type": "address"
        }
      ],
      "name": "lastExerciseTime",
      "outputs": [
        {
          "internalType": "uint256",
          "name": "",
          "type": "uint256"
        }
      ],
      "stateMutability": "view",
      "type": "function"
    },
    {
      "inputs": [
        {
          "internalType": "address",
          "name": "to",
          "type": "address"
        },
        {
          "internalType": "uint256",
          "name": "amount",
          "type": "uint256"
        }
      ],
      "name": "mint",
      "outputs": [],
      "stateMutability": "nonpayable",
      "type": "function"
    },
    {
      "inputs": [],
      "name": "name",
      "outputs": [
        {
          "internalType": "string",
          "name": "",
          "type": "string"
        }
      ],
      "stateMutability": "view",
      "type": "function"
    },
    {
      "inputs": [],
      "name": "pause",
      "outputs": [],
      "stateMutability": "nonpayable",
      "type": "function"
    },
    {
      "inputs": [],
      "name": "paused",
      "outputs": [
        {
          "internalType": "bool",
          "name": "",
          "type": "bool"
        }
      ],
      "stateMutability": "view",
      "type": "function"
    },
    {
      "inputs": [
        {
          "internalType": "uint256",
          "name": "tokensToSpend",
          "type": "uint256"
        }
      ],
      "name": "redeemForDiscount",
      "outputs": [
        {
          "internalType": "uint256",
          "name": "discountPercent",
          "type": "uint256"
        }
      ],
      "stateMutability": "nonpayable",
      "type": "function"
    },
    {
      "inputs": [
        {
          "internalType": "bytes32",
          "name": "role",
          "type": "bytes32"
        },
        {
          "internalType": "address",
          "name": "account",
          "type": "address"
        }
      ],
      "name": "renounceRole",
      "outputs": [],
      "stateMutability": "nonpayable",
      "type": "function"
    },
    {
      "inputs": [
        {
          "internalType": "bytes32",
          "name": "role",
          "type": "bytes32"
        },
        {
          "internalType": "address",
          "name": "account",
          "type": "address"
        }
      ],
      "name": "revokeRole",
      "outputs": [],
      "stateMutability": "nonpayable",
      "type": "function"
    },
    {
      "inputs": [
        {
          "internalType": "address",
          "name": "user",
          "type": "address"
        }
      ],
      "name": "rewardDailyExercise",
      "outputs": [],
      "stateMutability": "nonpayable",
      "type": "function"
    },
    {
      "inputs": [
        {
          "internalType": "address",
          "name": "user",
          "type": "address"
        }
      ],
      "name": "rewardEyeTest",
      "outputs": [],
      "stateMutability": "nonpayable",
      "type": "function"
    },
    {
      "inputs": [
        {
          "internalType": "address",
          "name": "user",
          "type": "address"
        }
      ],
      "name": "rewardFamilyMember",
      "outputs": [],
      "stateMutability": "nonpayable",
      "type": "function"
    },
    {
      "inputs": [
        {
          "internalType": "bytes4",
          "name": "interfaceId",
          "type": "bytes4"
        }
      ],
      "name": "supportsInterface",
      "outputs": [
        {
          "internalType": "bool",
          "name": "",
          "type": "bool"
        }
      ],
      "stateMutability": "view",
      "type": "function"
    },
    {
      "inputs": [],
      "name": "symbol",
      "outputs": [
        {
          "internalType": "string",
          "name": "",
          "type": "string"
        }
      ],
      "stateMutability": "view",
      "type": "function"
    },
    {
      "inputs": [
        {
          "internalType": "address",
          "name": "",
          "type": "address"
        }
      ],
      "name": "totalExercises",
      "outputs": [
        {
          "internalType": "uint256",
          "name": "",
          "type": "uint256"
        }
      ],
      "stateMutability": "view",
      "type": "function"
    },
    {
      "inputs": [
        {
          "internalType": "address",
          "name": "",
          "type": "address"
        }
      ],
      "name": "totalEyeTests",
      "outputs": [
        {
          "internalType": "uint256",
          "name": "",
          "type": "uint256"
        }
      ],
      "stateMutability": "view",
      "type": "function"
    },
    {
      "inputs": [],
      "name": "totalSupply",
      "outputs": [
        {
          "internalType": "uint256",
          "name": "",
          "type": "uint256"
        }
      ],
      "stateMutability": "view",
      "type": "function"
    },
    {
      "inputs": [
        {
          "internalType": "address",
          "name": "to",
          "type": "address"
        },
        {
          "internalType": "uint256",
          "name": "amount",
          "type": "uint256"
        }
      ],
      "name": "transfer",
      "outputs": [
        {
          "internalType": "bool",
          "name": "",
          "type": "bool"
        }
      ],
      "stateMutability": "nonpayable",
      "type": "function"
    },
    {
      "inputs": [
        {
          "internalType": "address",
          "name": "from",
          "type": "address"
        },
        {
          "internalType": "address",
          "name": "to",
          "type": "address"
        },
        {
          "internalType": "uint256",
          "name": "amount",
          "type": "uint256"
        }
      ],
      "name": "transferFrom",
      "outputs": [
        {
          "internalType": "bool",
          "name": "",
          "type": "bool"
        }
      ],
      "stateMutability": "nonpayable",
      "type": "function"
    },
    {
      "inputs": [],
      "name": "unpause",
      "outputs": [],
      "stateMutability": "nonpayable",
      "type": "function"
    },
    {
      "inputs": [
        {
          "internalType": "uint256",
          "name": "discountToUse",
          "type": "uint256"
        }
      ],
      "name": "useDiscount",
      "outputs": [],
      "stateMutability": "nonpayable",
      "type": "function"
    },
    {
      "inputs": [],
      "name": "version",
      "outputs": [
        {
          "internalType": "string",
          "name": "",
          "type": "string"
        }
      ],
      "stateMutability": "pure",
      "type": "function"
    }
  ],
  "bytecode": "0x60806040523480156200001157600080fd5b5060405180604001604052806008815260200167222929aa21b7b4b760c11b81525060405180604001604052806004815260200163111494d560e21b815250816003908162000061919062000263565b50600462000070828262000263565b50506001600655506007805460ff191690556200008f60003362000119565b620000bb7fa49807205ce4d355092ef5a8a18f56e8913cf4a201fbe287825b095693c217753362000119565b620000e77f9f2df0fed2c77648de5860a4cc508cd0818c85b8b8a1ab4ceeef8d981c8956a63362000119565b620001137f65d7a28e3265b37a6474929f336521b332c1681b933f6cb9f3376673440d862a3362000119565b6200032f565b60008281526005602090815260408083206001600160a01b038516845290915290205460ff16620001ba5760008281526005602090815260408083206001600160a01b03851684529091529020805460ff19166001179055620001793390565b6001600160a01b0316816001600160a01b0316837f2f8788117e7eff1d82e926ec794901d17c78024a50270940304540a733656f0d60405160405180910390a45b5050565b634e487b7160e01b600052604160045260246000fd5b600181811c90821680620001e957607f821691505b6020821081036200020a57634e487b7160e01b600052602260045260246000fd5b50919050565b601f8211156200025e57600081815260208120601f850160051c81016020861015620002395750805b601f850160051c820191505b818110156200025a5782815560010162000245565b5050505b505050565b81516001600160401b038111156200027f576200027f620001be565b6200029781620002908454620001d4565b8462000210565b602080601f831160018114620002cf5760008415620002b65750858301515b600019600386901b1c1916600185901b1785556200025a565b600085815260208120601f198616915b828110156200030057888601518255948401946001909101908401620002df565b50858210156200031f5787850151600019600388901b60f8161c191681555b5050505050600190811b01905550565b611e80806200033f6000396000f3fe608060405234801561001057600080fd5b50600436106102745760003560e01c806370a0823111610151578063b510c589116100c3578063db2a67ad11610087578063db2a67ad146105eb578063dd62ed3e146105fe578063e63ab1e914610611578063e7a0d1f214610638578063ef8e52e314610658578063fba9f8301461066b57600080fd5b8063b510c58914610588578063b5b047c314610590578063b77c0e4a146105a3578063d5391393146105c3578063d547741f146105d857600080fd5b8063891be9e711610115578063891be9e71461052c57806391d148541461053f57806395d89b4114610552578063a217fddf1461055a578063a457c2d714610562578063a9059cbb1461057557600080fd5b806370a08231146104ae57806375b238fc146104d7578063762cdcfa146104fe57806379cc6790146105115780638456cb591461052457600080fd5b80633f4ba83a116101ea57806354fd4d50116101ae57806354fd4d50146104225780635c975abb146104435780635d5c57851461044e578063603af74b1461045e57806360e01f6a1461046e5780636314de781461048e57600080fd5b80633f4ba83a1461037b57806340c10f191461038357806342966c68146103965780634e43603a146103a95780634fdaa24e1461041357600080fd5b8063248a9ca31161023c578063248a9ca3146102ee57806327835ed5146103115780632f2ff15d14610331578063313ce5671461034657806336568abe14610355578063395093511461036857600080fd5b806301ffc9a71461027957806306fdde03146102a1578063095ea7b3146102b657806318160ddd146102c957806323b872dd146102db575b600080fd5b61028c610287366004611af9565b61067e565b60405190151581526020015b60405180910390f35b6102a96106b5565b6040516102989190611b47565b61028c6102c4366004611b91565b610747565b6002545b604051908152602001610298565b61028c6102e9366004611bbb565b61075f565b6102cd6102fc366004611bf7565b60009081526005602052604090206001015490565b6102cd61031f366004611c10565b600a6020526000908152604090205481565b61034461033f366004611c2b565b610783565b005b60405160128152602001610298565b610344610363366004611c2b565b6107ad565b61028c610376366004611b91565b610830565b610344610852565b610344610391366004611b91565b610887565b6103446103a4366004611bf7565b6108de565b6103f36103b7366004611c10565b6001600160a01b0316600090815260096020908152604080832054600a835281842054600b845282852054600c90945291909320549293909290565b604080519485526020850193909352918301526060820152608001610298565b6102cd674563918244f4000081565b6040805180820190915260058152640312e302e360dc1b60208201526102a9565b60075460ff1661028c565b6102cd6801158e460913d0000081565b6102cd6802b5e3af16b188000081565b6102cd61047c366004611c10565b600b6020526000908152604090205481565b6102cd61049c366004611c10565b60096020526000908152604090205481565b6102cd6104bc366004611c10565b6001600160a01b031660009081526020819052604090205490565b6102cd7fa49807205ce4d355092ef5a8a18f56e8913cf4a201fbe287825b095693c2177581565b61034461050c366004611c10565b6108e8565b61034461051f366004611b91565b610a71565b610344610a86565b6102cd61053a366004611bf7565b610ab8565b61028c61054d366004611c2b565b610c96565b6102a9610cc1565b6102cd600081565b61028c610570366004611b91565b610cd0565b61028c610583366004611b91565b610d4b565b6102cd606481565b61034461059e366004611bf7565b610d59565b6102cd6105b1366004611c10565b60086020526000908152604090205481565b6102cd600080516020611e2b83398151915281565b6103446105e6366004611c2b565b610eaf565b61028c6105f9366004611c10565b610ed4565b6102cd61060c366004611c57565b610f03565b6102cd7f65d7a28e3265b37a6474929f336521b332c1681b933f6cb9f3376673440d862a81565b6102cd610646366004611c10565b600c6020526000908152604090205481565b610344610666366004611c10565b610f2e565b610344610679366004611c10565b611034565b60006001600160e01b03198216637965db0b60e01b14806106af57506301ffc9a760e01b6001600160e01b03198316145b92915050565b6060600380546106c490611c81565b80601f01602080910402602001604051908101604052809291908181526020018280546106f090611c81565b801561073d5780601f106107125761010080835404028352916020019161073d565b820191906000526020600020905b81548152906001019060200180831161072057829003601f168201915b5050505050905090565b600033610755818585611123565b5060019392505050565b60003361076d858285611247565b6107788585856112bb565b506001949350505050565b60008281526005602052604090206001015461079e8161146a565b6107a88383611474565b505050565b6001600160a01b03811633146108225760405162461bcd60e51b815260206004820152602f60248201527f416363657373436f6e74726f6c3a2063616e206f6e6c792072656e6f756e636560448201526e103937b632b9903337b91039b2b63360891b60648201526084015b60405180910390fd5b61082c82826114fa565b5050565b6000336107558185856108438383610f03565b61084d9190611cd1565b611123565b7f65d7a28e3265b37a6474929f336521b332c1681b933f6cb9f3376673440d862a61087c8161146a565b610884611561565b50565b600080516020611e2b83398151915261089f8161146a565b826001600160a01b0381166108c65760405162461bcd60e51b815260040161081990611ce4565b6108ce6115b3565b6108d884846115fb565b50505050565b61088433826116c6565b600080516020611e2b8339815191526109008161146a565b816001600160a01b0381166109275760405162461bcd60e51b815260040161081990611ce4565b61092f6115b3565b6001600160a01b03831660009081526008602052604090205483906109579062015180611cd1565b4210156109a65760405162461bcd60e51b815260206004820181905260248201527f4461696c7920657865726369736520616c726561647920636f6d706c657465646044820152606401610819565b6109ae611804565b6109c084674563918244f400006115fb565b6001600160a01b0384166000908152600860209081526040808320429055600a90915281208054916109f183611d0d565b9190505550836001600160a01b03167f765f02a4009bbabeb5bcacb42308293ab54fa68b299d9cf67bc945e839be9660674563918244f40000604051610a5f918152604060208201819052600e908201526d6461696c795f657865726369736560901b606082015260800190565b60405180910390a26108d86001600655565b610a7c823383611247565b61082c82826116c6565b7f65d7a28e3265b37a6474929f336521b332c1681b933f6cb9f3376673440d862a610ab08161146a565b61088461185d565b6000610ac26115b3565b610aca611804565b60008211610b1a5760405162461bcd60e51b815260206004820152601d60248201527f4d757374207370656e64206d6f7265207468616e203020746f6b656e730000006044820152606401610819565b33600090815260208190526040902054821115610b705760405162461bcd60e51b8152602060048201526014602482015273496e73756666696369656e742062616c616e636560601b6044820152606401610819565b610b7b606483611d26565b905060008111610bcd5760405162461bcd60e51b815260206004820181905260248201527f496e73756666696369656e7420746f6b656e7320666f7220646973636f756e746044820152606401610819565b6032811115610c1e5760405162461bcd60e51b815260206004820152601c60248201527f4d6178696d756d2035302520646973636f756e7420616c6c6f776564000000006044820152606401610819565b610c2833836116c6565b336000908152600c602052604081208054839290610c47908490611cd1565b9091555050604080518381526020810183905233917fa5d355764530fdfd305e1709a5c34997434bd0032f3afe650f362d1d1544b947910160405180910390a2610c916001600655565b919050565b60009182526005602090815260408084206001600160a01b0393909316845291905290205460ff1690565b6060600480546106c490611c81565b60003381610cde8286610f03565b905083811015610d3e5760405162461bcd60e51b815260206004820152602560248201527f45524332303a2064656372656173656420616c6c6f77616e63652062656c6f77604482015264207a65726f60d81b6064820152608401610819565b6107788286868403611123565b6000336107558185856112bb565b610d616115b3565b610d69611804565b60008111610db95760405162461bcd60e51b815260206004820152601e60248201527f4d75737420757365206d6f7265207468616e20302520646973636f756e7400006044820152606401610819565b336000908152600c6020526040902054811115610e185760405162461bcd60e51b815260206004820152601d60248201527f496e73756666696369656e7420646973636f756e742062616c616e63650000006044820152606401610819565b336000908152600c602052604081208054839290610e37908490611d48565b909155505060405133907f840b44fdbcb5cc554d649d4eff35e951766f31d646497b364a9cd6d6677d3e1490610e9d9084815260406020820181905260159082015274191bd8dd1bdc97dd9a5cda5d17d91a5cd8dbdd5b9d605a1b606082015260800190565b60405180910390a26108846001600655565b600082815260056020526040902060010154610eca8161146a565b6107a883836114fa565b6001600160a01b038116600090815260086020526040812054610efa9062015180611cd1565b42101592915050565b6001600160a01b03918216600090815260016020908152604080832093909416825291909152205490565b600080516020611e2b833981519152610f468161146a565b816001600160a01b038116610f6d5760405162461bcd60e51b815260040161081990611ce4565b610f756115b3565b610f7d611804565b610f90836801158e460913d000006115fb565b6001600160a01b0383166000908152600b60205260408120805491610fb483611d0d565b9190505550826001600160a01b03167f765f02a4009bbabeb5bcacb42308293ab54fa68b299d9cf67bc945e839be96606801158e460913d00000604051611022918152604060208201819052600d908201526c3330b6b4b63cafb6b2b6b132b960991b606082015260800190565b60405180910390a26107a86001600655565b600080516020611e2b83398151915261104c8161146a565b816001600160a01b0381166110735760405162461bcd60e51b815260040161081990611ce4565b61107b6115b3565b611083611804565b611096836802b5e3af16b18800006115fb565b6001600160a01b03831660009081526009602052604081208054916110ba83611d0d565b9190505550826001600160a01b03167f765f02a4009bbabeb5bcacb42308293ab54fa68b299d9cf67bc945e839be96606802b5e3af16b188000060405161102291815260406020820181905260089082015267195e5957dd195cdd60c21b606082015260800190565b6001600160a01b0383166111855760405162461bcd60e51b8152602060048201526024808201527f45524332303a20617070726f76652066726f6d20746865207a65726f206164646044820152637265737360e01b6064820152608401610819565b6001600160a01b0382166111e65760405162461bcd60e51b815260206004820152602260248201527f45524332303a20617070726f766520746f20746865207a65726f206164647265604482015261737360f01b6064820152608401610819565b6001600160a01b0383811660008181526001602090815260408083209487168084529482529182902085905590518481527f8c5be1e5ebec7d5bd14f71427d1e84f3dd0314c0f7b2291e5b200ac8c7c3b925910160405180910390a3505050565b60006112538484610f03565b905060001981146108d857818110156112ae5760405162461bcd60e51b815260206004820152601d60248201527f45524332303a20696e73756666696369656e7420616c6c6f77616e63650000006044820152606401610819565b6108d88484848403611123565b6001600160a01b03831661131f5760405162461bcd60e51b815260206004820152602560248201527f45524332303a207472616e736665722066726f6d20746865207a65726f206164604482015264647265737360d81b6064820152608401610819565b6001600160a01b0382166113815760405162461bcd60e51b815260206004820152602360248201527f45524332303a207472616e7366657220746f20746865207a65726f206164647260448201526265737360e81b6064820152608401610819565b61138c83838361189a565b6001600160a01b038316600090815260208190526040902054818110156114045760405162461bcd60e51b815260206004820152602660248201527f45524332303a207472616e7366657220616d6f756e7420657863656564732062604482015265616c616e636560d01b6064820152608401610819565b6001600160a01b03848116600081815260208181526040808320878703905593871680835291849020805487019055925185815290927fddf252ad1be2c89b69c2b068fc378daa952ba7f163c4a11628f55a4df523b3ef910160405180910390a36108d8565b61088481336118a2565b61147e8282610c96565b61082c5760008281526005602090815260408083206001600160a01b03851684529091529020805460ff191660011790556114b63390565b6001600160a01b0316816001600160a01b0316837f2f8788117e7eff1d82e926ec794901d17c78024a50270940304540a733656f0d60405160405180910390a45050565b6115048282610c96565b1561082c5760008281526005602090815260408083206001600160a01b0385168085529252808320805460ff1916905551339285917ff6391f5c32d9c69d2a47ea670b442974b53935d1edc7fd64eb21e047a839171b9190a45050565b6115696118fb565b6007805460ff191690557f5db9ee0a495bf2e6ff9c91a7834c1ba4fdd244a5e8aa4e537bd38aeae4b073aa335b6040516001600160a01b03909116815260200160405180910390a1565b60075460ff16156115f95760405162461bcd60e51b815260206004820152601060248201526f14185d5cd8589b194e881c185d5cd95960821b6044820152606401610819565b565b6001600160a01b0382166116515760405162461bcd60e51b815260206004820152601f60248201527f45524332303a206d696e7420746f20746865207a65726f2061646472657373006044820152606401610819565b61165d6000838361189a565b806002600082825461166f9190611cd1565b90915550506001600160a01b038216600081815260208181526040808320805486019055518481527fddf252ad1be2c89b69c2b068fc378daa952ba7f163c4a11628f55a4df523b3ef910160405180910390a35050565b6001600160a01b0382166117265760405162461bcd60e51b815260206004820152602160248201527f45524332303a206275726e2066726f6d20746865207a65726f206164647265736044820152607360f81b6064820152608401610819565b6117328260008361189a565b6001600160a01b038216600090815260208190526040902054818110156117a65760405162461bcd60e51b815260206004820152602260248201527f45524332303a206275726e20616d6f756e7420657863656564732062616c616e604482015261636560f01b6064820152608401610819565b6001600160a01b0383166000818152602081815260408083208686039055600280548790039055518581529192917fddf252ad1be2c89b69c2b068fc378daa952ba7f163c4a11628f55a4df523b3ef910160405180910390a3505050565b6002600654036118565760405162461bcd60e51b815260206004820152601f60248201527f5265656e7472616e637947756172643a207265656e7472616e742063616c6c006044820152606401610819565b6002600655565b6118656115b3565b6007805460ff191660011790557f62e78cea01bee320cd4e420270b5ea74000d11b0c9f74754ebdbfc544b05a2586115963390565b6107a86115b3565b6118ac8282610c96565b61082c576118b981611944565b6118c4836020611956565b6040516020016118d5929190611d5b565b60408051601f198184030181529082905262461bcd60e51b825261081991600401611b47565b60075460ff166115f95760405162461bcd60e51b815260206004820152601460248201527314185d5cd8589b194e881b9bdd081c185d5cd95960621b6044820152606401610819565b60606106af6001600160a01b03831660145b60606000611965836002611dd0565b611970906002611cd1565b67ffffffffffffffff81111561198857611988611de7565b6040519080825280601f01601f1916602001820160405280156119b2576020820181803683370190505b509050600360fc1b816000815181106119cd576119cd611dfd565b60200101906001600160f81b031916908160001a905350600f60fb1b816001815181106119fc576119fc611dfd565b60200101906001600160f81b031916908160001a9053506000611a20846002611dd0565b611a2b906001611cd1565b90505b6001811115611aa3576f181899199a1a9b1b9c1cb0b131b232b360811b85600f1660108110611a5f57611a5f611dfd565b1a60f81b828281518110611a7557611a75611dfd565b60200101906001600160f81b031916908160001a90535060049490941c93611a9c81611e13565b9050611a2e565b508315611af25760405162461bcd60e51b815260206004820181905260248201527f537472696e67733a20686578206c656e67746820696e73756666696369656e746044820152606401610819565b9392505050565b600060208284031215611b0b57600080fd5b81356001600160e01b031981168114611af257600080fd5b60005b83811015611b3e578181015183820152602001611b26565b50506000910152565b6020815260008251806020840152611b66816040850160208701611b23565b601f01601f19169190910160400192915050565b80356001600160a01b0381168114610c9157600080fd5b60008060408385031215611ba457600080fd5b611bad83611b7a565b946020939093013593505050565b600080600060608486031215611bd057600080fd5b611bd984611b7a565b9250611be760208501611b7a565b9150604084013590509250925092565b600060208284031215611c0957600080fd5b5035919050565b600060208284031215611c2257600080fd5b611af282611b7a565b60008060408385031215611c3e57600080fd5b82359150611c4e60208401611b7a565b90509250929050565b60008060408385031215611c6a57600080fd5b611c7383611b7a565b9150611c4e60208401611b7a565b600181811c90821680611c9557607f821691505b602082108103611cb557634e487b7160e01b600052602260045260246000fd5b50919050565b634e487b7160e01b600052601160045260246000fd5b808201808211156106af576106af611cbb565b6020808252600f908201526e496e76616c6964206164647265737360881b604082015260600190565b600060018201611d1f57611d1f611cbb565b5060010190565b600082611d4357634e487b7160e01b600052601260045260246000fd5b500490565b818103818111156106af576106af611cbb565b7f416363657373436f6e74726f6c3a206163636f756e7420000000000000000000815260008351611d93816017850160208801611b23565b7001034b99036b4b9b9b4b733903937b6329607d1b6017918401918201528351611dc4816028840160208801611b23565b01602801949350505050565b80820281158282048414176106af576106af611cbb565b634e487b7160e01b600052604160045260246000fd5b634e487b7160e01b600052603260045260246000fd5b600081611e2257611e22611cbb565b50600019019056fe9f2df0fed2c77648de5860a4cc508cd0818c85b8b8a1ab4ceeef8d981c8956a6a264697066735822122058d3279f6259ae6a9b150b378f8f6084bb3fc994db60022369648957adff1e8464736f6c63430008130033",
  "linkReferences": {},
  "deployedLinkReferences": {}
}