{
  "_format": "hh-sol-artifact-1",
  "contractName": "VisionCoin",
  "sourceName": "contracts/VisionCoin.sol",
  "abi": [
    {
      "inputs": [],
      "stateMutability": "nonpayable",
      "type": "constructor"
    },
    {
      "anonymous": false,
      "inputs": [
        {
          "indexed": true,
          "internalType": "address",
          "name": "owner",
          "type": "address"
        },
        {
          "indexed": true,
          "internalType": "address",
          "name": "spender",
          "type": "address"
        },
        {
          "indexed": false,
          "internalType": "uint256",
          "name": "value",
          "type": "uint256"
        }
      ],
      "name": "Approval",
      "type": "event"
    },
    {
      "anonymous": false,
      "inputs": [
        {
          "indexed": true,
          "internalType": "address",
          "name": "user",
          "type": "address"
        },
        {
          "indexed": false,
          "internalType": "enum VisionCoin.HealthCondition",
          "name": "condition",
          "type": "uint8"
        },
        {
          "indexed": false,
          "internalType": "uint256",
          "name": "tokensEarned",
          "type": "uint256"
        },
        {
          "indexed": false,
          "internalType": "string",
          "name": "ipfsHash",
          "type": "string"
        },
        {
          "indexed": false,
          "internalType": "uint256",
          "name": "timestamp",
          "type": "uint256"
        }
      ],
      "name": "HealthAnalysisCompleted",
      "type": "event"
    },
    {
      "anonymous": false,
      "inputs": [
        {
          "indexed": false,
          "internalType": "address",
          "name": "account",
          "type": "address"
        }
      ],
      "name": "Paused",
      "type": "event"
    },
    {
      "anonymous": false,
      "inputs": [
        {
          "indexed": true,
          "internalType": "bytes32",
          "name": "role",
          "type": "bytes32"
        },
        {
          "indexed": true,
          "internalType": "bytes32",
          "name": "previousAdminRole",
          "type": "bytes32"
        },
        {
          "indexed": true,
          "internalType": "bytes32",
          "name": "newAdminRole",
          "type": "bytes32"
        }
      ],
      "name": "RoleAdminChanged",
      "type": "event"
    },
    {
      "anonymous": false,
      "inputs": [
        {
          "indexed": true,
          "internalType": "bytes32",
          "name": "role",
          "type": "bytes32"
        },
        {
          "indexed": true,
          "internalType": "address",
          "name": "account",
          "type": "address"
        },
        {
          "indexed": true,
          "internalType": "address",
          "name": "sender",
          "type": "address"
        }
      ],
      "name": "RoleGranted",
      "type": "event"
    },
    {
      "anonymous": false,
      "inputs": [
        {
          "indexed": true,
          "internalType": "bytes32",
          "name": "role",
          "type": "bytes32"
        },
        {
          "indexed": true,
          "internalType": "address",
          "name": "account",
          "type": "address"
        },
        {
          "indexed": true,
          "internalType": "address",
          "name": "sender",
          "type": "address"
        }
      ],
      "name": "RoleRevoked",
      "type": "event"
    },
    {
      "anonymous": false,
      "inputs": [
        {
          "indexed": true,
          "internalType": "address",
          "name": "user",
          "type": "address"
        },
        {
          "indexed": false,
          "internalType": "uint256",
          "name": "amount",
          "type": "uint256"
        },
        {
          "indexed": false,
          "internalType": "enum VisionCoin.HealthCondition",
          "name": "condition",
          "type": "uint8"
        }
      ],
      "name": "TokensEarnedFromHealth",
      "type": "event"
    },
    {
      "anonymous": false,
      "inputs": [
        {
          "indexed": true,
          "internalType": "address",
          "name": "from",
          "type": "address"
        },
        {
          "indexed": true,
          "internalType": "address",
          "name": "to",
          "type": "address"
        },
        {
          "indexed": false,
          "internalType": "uint256",
          "name": "value",
          "type": "uint256"
        }
      ],
      "name": "Transfer",
      "type": "event"
    },
    {
      "anonymous": false,
      "inputs": [
        {
          "indexed": false,
          "internalType": "address",
          "name": "account",
          "type": "address"
        }
      ],
      "name": "Unpaused",
      "type": "event"
    },
    {
      "inputs": [],
      "name": "ADMIN_ROLE",
      "outputs": [
        {
          "internalType": "bytes32",
          "name": "",
          "type": "bytes32"
        }
      ],
      "stateMutability": "view",
      "type": "function"
    },
    {
      "inputs": [],
      "name": "ANALYZER_ROLE",
      "outputs": [
        {
          "internalType": "bytes32",
          "name": "",
          "type": "bytes32"
        }
      ],
      "stateMutability": "view",
      "type": "function"
    },
    {
      "inputs": [],
      "name": "DEFAULT_ADMIN_ROLE",
      "outputs": [
        {
          "internalType": "bytes32",
          "name": "",
          "type": "bytes32"
        }
      ],
      "stateMutability": "view",
      "type": "function"
    },
    {
      "inputs": [],
      "name": "MILD_ABNORMALITY_REWARD",
      "outputs": [
        {
          "internalType": "uint256",
          "name": "",
          "type": "uint256"
        }
      ],
      "stateMutability": "view",
      "type": "function"
    },
    {
      "inputs": [],
      "name": "MINTER_ROLE",
      "outputs": [
        {
          "internalType": "bytes32",
          "name": "",
          "type": "bytes32"
        }
      ],
      "stateMutability": "view",
      "type": "function"
    },
    {
      "inputs": [],
      "name": "NORMAL_CONDITION_REWARD",
      "outputs": [
        {
          "internalType": "uint256",
          "name": "",
          "type": "uint256"
        }
      ],
      "stateMutability": "view",
      "type": "function"
    },
    {
      "inputs": [],
      "name": "PAUSER_ROLE",
      "outputs": [
        {
          "internalType": "bytes32",
          "name": "",
          "type": "bytes32"
        }
      ],
      "stateMutability": "view",
      "type": "function"
    },
    {
      "inputs": [],
      "name": "SEVERE_ABNORMALITY_REWARD",
      "outputs": [
        {
          "internalType": "uint256",
          "name": "",
          "type": "uint256"
        }
      ],
      "stateMutability": "view",
      "type": "function"
    },
    {
      "inputs": [
        {
          "internalType": "address",
          "name": "owner",
          "type": "address"
        },
        {
          "internalType": "address",
          "name": "spender",
          "type": "address"
        }
      ],
      "name": "allowance",
      "outputs": [
        {
          "internalType": "uint256",
          "name": "",
          "type": "uint256"
        }
      ],
      "stateMutability": "view",
      "type": "function"
    },
    {
      "inputs": [
        {
          "internalType": "address",
          "name": "spender",
          "type": "address"
        },
        {
          "internalType": "uint256",
          "name": "amount",
          "type": "uint256"
        }
      ],
      "name": "approve",
      "outputs": [
        {
          "internalType": "bool",
          "name": "",
          "type": "bool"
        }
      ],
      "stateMutability": "nonpayable",
      "type": "function"
    },
    {
      "inputs": [
        {
          "internalType": "address",
          "name": "account",
          "type": "address"
        }
      ],
      "name": "balanceOf",
      "outputs": [
        {
          "internalType": "uint256",
          "name": "",
          "type": "uint256"
        }
      ],
      "stateMutability": "view",
      "type": "function"
    },
    {
      "inputs": [
        {
          "internalType": "uint256",
          "name": "amount",
          "type": "uint256"
        }
      ],
      "name": "burn",
      "outputs": [],
      "stateMutability": "nonpayable",
      "type": "function"
    },
    {
      "inputs": [
        {
          "internalType": "address",
          "name": "account",
          "type": "address"
        },
        {
          "internalType": "uint256",
          "name": "amount",
          "type": "uint256"
        }
      ],
      "name": "burnFrom",
      "outputs": [],
      "stateMutability": "nonpayable",
      "type": "function"
    },
    {
      "inputs": [
        {
          "internalType": "enum VisionCoin.HealthCondition",
          "name": "",
          "type": "uint8"
        }
      ],
      "name": "conditionCounts",
      "outputs": [
        {
          "internalType": "uint256",
          "name": "",
          "type": "uint256"
        }
      ],
      "stateMutability": "view",
      "type": "function"
    },
    {
      "inputs": [
        {
          "internalType": "address",
          "name": "",
          "type": "address"
        }
      ],
      "name": "currentHealthStatus",
      "outputs": [
        {
          "internalType": "enum VisionCoin.HealthCondition",
          "name": "",
          "type": "uint8"
        }
      ],
      "stateMutability": "view",
      "type": "function"
    },
    {
      "inputs": [],
      "name": "decimals",
      "outputs": [
        {
          "internalType": "uint8",
          "name": "",
          "type": "uint8"
        }
      ],
      "stateMutability": "view",
      "type": "function"
    },
    {
      "inputs": [
        {
          "internalType": "address",
          "name": "spender",
          "type": "address"
        },
        {
          "internalType": "uint256",
          "name": "subtractedValue",
          "type": "uint256"
        }
      ],
      "name": "decreaseAllowance",
      "outputs": [
        {
          "internalType": "bool",
          "name": "",
          "type": "bool"
        }
      ],
      "stateMutability": "nonpayable",
      "type": "function"
    },
    {
      "inputs": [],
      "name": "getGlobalHealthStats",
      "outputs": [
        {
          "internalType": "uint256",
          "name": "totalUsers",
          "type": "uint256"
        },
        {
          "internalType": "uint256",
          "name": "totalAnalysisCount",
          "type": "uint256"
        },
        {
          "internalType": "uint256",
          "name": "normalCount",
          "type": "uint256"
        },
        {
          "internalType": "uint256",
          "name": "mildCount",
          "type": "uint256"
        },
        {
          "internalType": "uint256",
          "name": "severeCount",
          "type": "uint256"
        }
      ],
      "stateMutability": "view",
      "type": "function"
    },
    {
      "inputs": [
        {
          "internalType": "address",
          "name": "user",
          "type": "address"
        }
      ],
      "name": "getLatestHealthAnalysis",
      "outputs": [
        {
          "components": [
            {
              "internalType": "enum VisionCoin.HealthCondition",
              "name": "condition",
              "type": "uint8"
            },
            {
              "internalType": "uint256",
              "name": "timestamp",
              "type": "uint256"
            },
            {
              "internalType": "string",
              "name": "ipfsHash",
              "type": "string"
            },
            {
              "internalType": "uint256",
              "name": "tokensEarned",
              "type": "uint256"
            }
          ],
          "internalType": "struct VisionCoin.HealthAnalysis",
          "name": "",
          "type": "tuple"
        }
      ],
      "stateMutability": "view",
      "type": "function"
    },
    {
      "inputs": [
        {
          "internalType": "bytes32",
          "name": "role",
          "type": "bytes32"
        }
      ],
      "name": "getRoleAdmin",
      "outputs": [
        {
          "internalType": "bytes32",
          "name": "",
          "type": "bytes32"
        }
      ],
      "stateMutability": "view",
      "type": "function"
    },
    {
      "inputs": [
        {
          "internalType": "address",
          "name": "user",
          "type": "address"
        }
      ],
      "name": "getUserHealthHistory",
      "outputs": [
        {
          "components": [
            {
              "internalType": "enum VisionCoin.HealthCondition",
              "name": "condition",
              "type": "uint8"
            },
            {
              "internalType": "uint256",
              "name": "timestamp",
              "type": "uint256"
            },
            {
              "internalType": "string",
              "name": "ipfsHash",
              "type": "string"
            },
            {
              "internalType": "uint256",
              "name": "tokensEarned",
              "type": "uint256"
            }
          ],
          "internalType": "struct VisionCoin.HealthAnalysis[]",
          "name": "",
          "type": "tuple[]"
        }
      ],
      "stateMutability": "view",
      "type": "function"
    },
    {
      "inputs": [
        {
          "internalType": "address",
          "name": "user",
          "type": "address"
        }
      ],
      "name": "getUserHealthStats",
      "outputs": [
        {
          "internalType": "uint256",
          "name": "totalEarned",
          "type": "uint256"
        },
        {
          "internalType": "uint256",
          "name": "analysisCount",
          "type": "uint256"
        },
        {
          "internalType": "enum VisionCoin.HealthCondition",
          "name": "currentCondition",
          "type": "uint8"
        },
        {
          "internalType": "uint256",
          "name": "lastAnalysis",
          "type": "uint256"
        }
      ],
      "stateMutability": "view",
      "type": "function"
    },
    {
      "inputs": [
        {
          "internalType": "bytes32",
          "name": "role",
          "type": "bytes32"
        },
        {
          "internalType": "address",
          "name": "account",
          "type": "address"
        }
      ],
      "name": "grantRole",
      "outputs": [],
      "stateMutability": "nonpayable",
      "type": "function"
    },
    {
      "inputs": [
        {
          "internalType": "bytes32",
          "name": "role",
          "type": "bytes32"
        },
        {
          "internalType": "address",
          "name": "account",
          "type": "address"
        }
      ],
      "name": "hasRole",
      "outputs": [
        {
          "internalType": "bool",
          "name": "",
          "type": "bool"
        }
      ],
      "stateMutability": "view",
      "type": "function"
    },
    {
      "inputs": [
        {
          "internalType": "address",
          "name": "spender",
          "type": "address"
        },
        {
          "internalType": "uint256",
          "name": "addedValue",
          "type": "uint256"
        }
      ],
      "name": "increaseAllowance",
      "outputs": [
        {
          "internalType": "bool",
          "name": "",
          "type": "bool"
        }
      ],
      "stateMutability": "nonpayable",
      "type": "function"
    },
    {
      "inputs": [
        {
          "internalType": "address",
          "name": "",
          "type": "address"
        }
      ],
      "name": "lastAnalysisTime",
      "outputs": [
        {
          "internalType": "uint256",
          "name": "",
          "type": "uint256"
        }
      ],
      "stateMutability": "view",
      "type": "function"
    },
    {
      "inputs": [
        {
          "internalType": "address",
          "name": "to",
          "type": "address"
        },
        {
          "internalType": "uint256",
          "name": "amount",
          "type": "uint256"
        }
      ],
      "name": "mint",
      "outputs": [],
      "stateMutability": "nonpayable",
      "type": "function"
    },
    {
      "inputs": [],
      "name": "name",
      "outputs": [
        {
          "internalType": "string",
          "name": "",
          "type": "string"
        }
      ],
      "stateMutability": "view",
      "type": "function"
    },
    {
      "inputs": [],
      "name": "pause",
      "outputs": [],
      "stateMutability": "nonpayable",
      "type": "function"
    },
    {
      "inputs": [],
      "name": "paused",
      "outputs": [
        {
          "internalType": "bool",
          "name": "",
          "type": "bool"
        }
      ],
      "stateMutability": "view",
      "type": "function"
    },
    {
      "inputs": [
        {
          "internalType": "address",
          "name": "user",
          "type": "address"
        },
        {
          "internalType": "enum VisionCoin.HealthCondition",
          "name": "condition",
          "type": "uint8"
        },
        {
          "internalType": "string",
          "name": "ipfsHash",
          "type": "string"
        }
      ],
      "name": "processHealthAnalysis",
      "outputs": [],
      "stateMutability": "nonpayable",
      "type": "function"
    },
    {
      "inputs": [
        {
          "internalType": "bytes32",
          "name": "role",
          "type": "bytes32"
        },
        {
          "internalType": "address",
          "name": "account",
          "type": "address"
        }
      ],
      "name": "renounceRole",
      "outputs": [],
      "stateMutability": "nonpayable",
      "type": "function"
    },
    {
      "inputs": [
        {
          "internalType": "bytes32",
          "name": "role",
          "type": "bytes32"
        },
        {
          "internalType": "address",
          "name": "account",
          "type": "address"
        }
      ],
      "name": "revokeRole",
      "outputs": [],
      "stateMutability": "nonpayable",
      "type": "function"
    },
    {
      "inputs": [
        {
          "internalType": "bytes4",
          "name": "interfaceId",
          "type": "bytes4"
        }
      ],
      "name": "supportsInterface",
      "outputs": [
        {
          "internalType": "bool",
          "name": "",
          "type": "bool"
        }
      ],
      "stateMutability": "view",
      "type": "function"
    },
    {
      "inputs": [],
      "name": "symbol",
      "outputs": [
        {
          "internalType": "string",
          "name": "",
          "type": "string"
        }
      ],
      "stateMutability": "view",
      "type": "function"
    },
    {
      "inputs": [],
      "name": "totalAnalyses",
      "outputs": [
        {
          "internalType": "uint256",
          "name": "",
          "type": "uint256"
        }
      ],
      "stateMutability": "view",
      "type": "function"
    },
    {
      "inputs": [],
      "name": "totalSupply",
      "outputs": [
        {
          "internalType": "uint256",
          "name": "",
          "type": "uint256"
        }
      ],
      "stateMutability": "view",
      "type": "function"
    },
    {
      "inputs": [
        {
          "internalType": "address",
          "name": "",
          "type": "address"
        }
      ],
      "name": "totalTokensEarned",
      "outputs": [
        {
          "internalType": "uint256",
          "name": "",
          "type": "uint256"
        }
      ],
      "stateMutability": "view",
      "type": "function"
    },
    {
      "inputs": [],
      "name": "totalUsersAnalyzed",
      "outputs": [
        {
          "internalType": "uint256",
          "name": "",
          "type": "uint256"
        }
      ],
      "stateMutability": "view",
      "type": "function"
    },
    {
      "inputs": [
        {
          "internalType": "address",
          "name": "to",
          "type": "address"
        },
        {
          "internalType": "uint256",
          "name": "amount",
          "type": "uint256"
        }
      ],
      "name": "transfer",
      "outputs": [
        {
          "internalType": "bool",
          "name": "",
          "type": "bool"
        }
      ],
      "stateMutability": "nonpayable",
      "type": "function"
    },
    {
      "inputs": [
        {
          "internalType": "address",
          "name": "from",
          "type": "address"
        },
        {
          "internalType": "address",
          "name": "to",
          "type": "address"
        },
        {
          "internalType": "uint256",
          "name": "amount",
          "type": "uint256"
        }
      ],
      "name": "transferFrom",
      "outputs": [
        {
          "internalType": "bool",
          "name": "",
          "type": "bool"
        }
      ],
      "stateMutability": "nonpayable",
      "type": "function"
    },
    {
      "inputs": [],
      "name": "unpause",
      "outputs": [],
      "stateMutability": "nonpayable",
      "type": "function"
    },
    {
      "inputs": [
        {
          "internalType": "address",
          "name": "",
          "type": "address"
        },
        {
          "internalType": "uint256",
          "name": "",
          "type": "uint256"
        }
      ],
      "name": "userHealthHistory",
      "outputs": [
        {
          "internalType": "enum VisionCoin.HealthCondition",
          "name": "condition",
          "type": "uint8"
        },
        {
          "internalType": "uint256",
          "name": "timestamp",
          "type": "uint256"
        },
        {
          "internalType": "string",
          "name": "ipfsHash",
          "type": "string"
        },
        {
          "internalType": "uint256",
          "name": "tokensEarned",
          "type": "uint256"
        }
      ],
      "stateMutability": "view",
      "type": "function"
    },
    {
      "inputs": [],
      "name": "version",
      "outputs": [
        {
          "internalType": "string",
          "name": "",
          "type": "string"
        }
      ],
      "stateMutability": "pure",
      "type": "function"
    }
  ],
  "bytecode": "0x60806040523480156200001157600080fd5b506040518060400160405280600a8152602001692b34b9b4b7b721b7b4b760b11b8152506040518060400160405280600381526020016256534360e81b815250816003908162000062919062000290565b50600462000071828262000290565b50506001600655506007805460ff191690556200009060003362000146565b620000bc7fa49807205ce4d355092ef5a8a18f56e8913cf4a201fbe287825b095693c217753362000146565b620000e87f9f2df0fed2c77648de5860a4cc508cd0818c85b8b8a1ab4ceeef8d981c8956a63362000146565b620001147f65d7a28e3265b37a6474929f336521b332c1681b933f6cb9f3376673440d862a3362000146565b620001407f6d8b58e8ac4e6e69a91e7d344dd37ffeef065ce7e2b5428efca0ffc57aac96673362000146565b6200035c565b60008281526005602090815260408083206001600160a01b038516845290915290205460ff16620001e75760008281526005602090815260408083206001600160a01b03851684529091529020805460ff19166001179055620001a63390565b6001600160a01b0316816001600160a01b0316837f2f8788117e7eff1d82e926ec794901d17c78024a50270940304540a733656f0d60405160405180910390a45b5050565b634e487b7160e01b600052604160045260246000fd5b600181811c908216806200021657607f821691505b6020821081036200023757634e487b7160e01b600052602260045260246000fd5b50919050565b601f8211156200028b57600081815260208120601f850160051c81016020861015620002665750805b601f850160051c820191505b81811015620002875782815560010162000272565b5050505b505050565b81516001600160401b03811115620002ac57620002ac620001eb565b620002c481620002bd845462000201565b846200023d565b602080601f831160018114620002fc5760008415620002e35750858301515b600019600386901b1c1916600185901b17855562000287565b600085815260208120601f198616915b828110156200032d578886015182559484019460019091019084016200030c565b50858210156200034c5787850151600019600388901b60f8161c191681555b5050505050600190811b01905550565b6123a7806200036c6000396000f3fe608060405234801561001057600080fd5b50600436106102745760003560e01c806376e2ca9711610151578063a9059cbb116100c3578063d547741f11610087578063d547741f146105ee578063d6da8b2f14610601578063dd62ed3e14610621578063e63ab1e914610634578063e8b411501461065b578063eaa298e3146106bb57600080fd5b8063a9059cbb14610565578063ac233cbe14610578578063b9d3d7c414610598578063cd0089a9146105b8578063d5391393146105c757600080fd5b806391d148541161011557806391d14854146104fd57806395d89b41146105105780639a47591a146105185780639ae734d51461053f578063a217fddf146103c6578063a457c2d71461055257600080fd5b806376e2ca971461048957806379cc679014610492578063831065c3146104a55780638456cb59146104d55780638cdeebcb146104dd57600080fd5b80633e7accc9116101ea57806354fd4d50116101ae57806354fd4d50146103e15780635c975abb146104025780636833ffe01461040d57806370a082311461043057806375b238fc1461045957806375f3a8051461048057600080fd5b80633e7accc91461038b5780633f4ba83a146103ab57806340c10f19146103b357806341471ed6146103c657806342966c68146103ce57600080fd5b8063248a9ca31161023c578063248a9ca3146102ee5780632a8d8125146103115780632f2ff15d14610341578063313ce5671461035657806336568abe14610365578063395093511461037857600080fd5b806301ffc9a71461027957806306fdde03146102a1578063095ea7b3146102b657806318160ddd146102c957806323b872dd146102db575b600080fd5b61028c610287366004611d09565b6106ca565b60405190151581526020015b60405180910390f35b6102a9610701565b6040516102989190611d83565b61028c6102c4366004611dad565b610793565b6002545b604051908152602001610298565b61028c6102e9366004611dd7565b6107ab565b6102cd6102fc366004611e13565b60009081526005602052604090206001015490565b6103196107d1565b604080519586526020860194909452928401919091526060830152608082015260a001610298565b61035461034f366004611e2c565b610893565b005b60405160128152602001610298565b610354610373366004611e2c565b6108bd565b61028c610386366004611dad565b610940565b61039e610399366004611e58565b610962565b6040516102989190611eef565b610354610b1e565b6103546103c1366004611dad565b610b53565b6102cd600081565b6103546103dc366004611e13565b610bde565b6040805180820190915260058152640312e302e360dc1b60208201526102a9565b60075460ff1661028c565b61042061041b366004611dad565b610bef565b6040516102989493929190611f02565b6102cd61043e366004611e58565b6001600160a01b031660009081526020819052604090205490565b6102cd7fa49807205ce4d355092ef5a8a18f56e8913cf4a201fbe287825b095693c2177581565b6102cd600c5481565b6102cd600d5481565b6103546104a0366004611dad565b610cc5565b6104c86104b3366004611e58565b600b6020526000908152604090205460ff1681565b6040516102989190611f39565b610354610cda565b6102cd6104eb366004611f56565b600e6020526000908152604090205481565b61028c61050b366004611e2c565b610d0c565b6102a9610d37565b6102cd7f6d8b58e8ac4e6e69a91e7d344dd37ffeef065ce7e2b5428efca0ffc57aac966781565b61035461054d366004611f87565b610d46565b61028c610560366004611dad565b6110aa565b61028c610573366004611dad565b611130565b6102cd610586366004611e58565b600a6020526000908152604090205481565b6105ab6105a6366004611e58565b61113e565b6040516102989190612059565b6102cd678ac7230489e8000081565b6102cd7f9f2df0fed2c77648de5860a4cc508cd0818c85b8b8a1ab4ceeef8d981c8956a681565b6103546105fc366004611e2c565b611286565b6102cd61060f366004611e58565b60096020526000908152604090205481565b6102cd61062f3660046120bb565b6112ab565b6102cd7f65d7a28e3265b37a6474929f336521b332c1681b933f6cb9f3376673440d862a81565b6106ab610669366004611e58565b6001600160a01b03166000908152600960209081526040808320546008835281842054600b845282852054600a90945291909320549293909260ff9092169190565b60405161029894939291906120e5565b6102cd674563918244f4000081565b60006001600160e01b03198216637965db0b60e01b14806106fb57506301ffc9a760e01b6001600160e01b03198316145b92915050565b6060600380546107109061210f565b80601f016020809104026020016040519081016040528092919081815260200182805461073c9061210f565b80156107895780601f1061075e57610100808354040283529160200191610789565b820191906000526020600020905b81548152906001019060200180831161076c57829003601f168201915b5050505050905090565b6000336107a18185856112d6565b5060019392505050565b6000336107b98582856113fa565b6107c485858561146e565b60019150505b9392505050565b6000806000806000600d54600c54600e60008060028111156107f5576107f5611e73565b600281111561080657610806611e73565b815260200190815260200160002054600e60006001600281111561082c5761082c611e73565b600281111561083d5761083d611e73565b815260200190815260200160002054600e600060028081111561086257610862611e73565b600281111561087357610873611e73565b815260200190815260200160002054945094509450945094509091929394565b6000828152600560205260409020600101546108ae8161161d565b6108b88383611627565b505050565b6001600160a01b03811633146109325760405162461bcd60e51b815260206004820152602f60248201527f416363657373436f6e74726f6c3a2063616e206f6e6c792072656e6f756e636560448201526e103937b632b9903337b91039b2b63360891b60648201526084015b60405180910390fd5b61093c82826116ad565b5050565b6000336107a181858561095383836112ab565b61095d919061215f565b6112d6565b61098e604080516080810190915280600081526020016000815260200160608152602001600081525090565b6001600160a01b0382166000908152600860205260409020546109f35760405162461bcd60e51b815260206004820152601760248201527f4e6f206865616c746820686973746f727920666f756e640000000000000000006044820152606401610929565b6001600160a01b03821660009081526008602052604090208054610a1990600190612172565b81548110610a2957610a29612185565b6000918252602090912060408051608081019091526004909202018054829060ff166002811115610a5c57610a5c611e73565b6002811115610a6d57610a6d611e73565b815260200160018201548152602001600282018054610a8b9061210f565b80601f0160208091040260200160405190810160405280929190818152602001828054610ab79061210f565b8015610b045780601f10610ad957610100808354040283529160200191610b04565b820191906000526020600020905b815481529060010190602001808311610ae757829003601f168201915b505050505081526020016003820154815250509050919050565b7f65d7a28e3265b37a6474929f336521b332c1681b933f6cb9f3376673440d862a610b488161161d565b610b50611714565b50565b7f9f2df0fed2c77648de5860a4cc508cd0818c85b8b8a1ab4ceeef8d981c8956a6610b7d8161161d565b826001600160a01b038116610bc65760405162461bcd60e51b815260206004820152600f60248201526e496e76616c6964206164647265737360881b6044820152606401610929565b610bce611766565b610bd884846117ae565b50505050565b610be6611766565b610b5081611879565b60086020528160005260406000208181548110610c0b57600080fd5b600091825260209091206004909102018054600182015460028301805460ff909316955090935090610c3c9061210f565b80601f0160208091040260200160405190810160405280929190818152602001828054610c689061210f565b8015610cb55780601f10610c8a57610100808354040283529160200191610cb5565b820191906000526020600020905b815481529060010190602001808311610c9857829003601f168201915b5050505050908060030154905084565b610cd08233836113fa565b61093c828261187f565b7f65d7a28e3265b37a6474929f336521b332c1681b933f6cb9f3376673440d862a610d048161161d565b610b506119bd565b60009182526005602090815260408084206001600160a01b0393909316845291905290205460ff1690565b6060600480546107109061210f565b7f6d8b58e8ac4e6e69a91e7d344dd37ffeef065ce7e2b5428efca0ffc57aac9667610d708161161d565b836001600160a01b038116610db95760405162461bcd60e51b815260206004820152600f60248201526e496e76616c6964206164647265737360881b6044820152606401610929565b826000815111610e0b5760405162461bcd60e51b815260206004820152601960248201527f4950465320686173682063616e6e6f7420626520656d707479000000000000006044820152606401610929565b610e13611766565b610e1b6119fa565b6000610e2686611a53565b905060006040518060800160405280886002811115610e4757610e47611e73565b815260200142815260200187815260200183815250905060086000896001600160a01b03166001600160a01b0316815260200190815260200160002080549050600003610ea457600d8054906000610e9e8361219b565b91905055505b6001600160a01b0388166000908152600860209081526040822080546001818101835591845291909220835160049092020180548493919291839160ff191690836002811115610ef657610ef6611e73565b02179055506020820151600182015560408201516002820190610f1990826121fa565b50606091909101516003909101556001600160a01b03881660009081526009602052604081208054849290610f4f90849061215f565b90915550506001600160a01b0388166000908152600a60209081526040808320429055600b9091529020805488919060ff19166001836002811115610f9657610f96611e73565b0217905550600c8054906000610fab8361219b565b9190505550600e6000886002811115610fc657610fc6611e73565b6002811115610fd757610fd7611e73565b81526020019081526020016000206000815480929190610ff69061219b565b9091555050811561104f5761100b88836117ae565b876001600160a01b03167f9526b468562a408455b85424c47cc4e724aa267fef9e566b93500afc2b024f1083896040516110469291906122ba565b60405180910390a25b876001600160a01b03167fc51d6d6941ce2b2e7aa8c914ced3ced8e5a31e93e50bc0b7522c91e456df0e5a8884894260405161108e9493929190611f02565b60405180910390a250506110a26001600655565b505050505050565b600033816110b882866112ab565b9050838110156111185760405162461bcd60e51b815260206004820152602560248201527f45524332303a2064656372656173656420616c6c6f77616e63652062656c6f77604482015264207a65726f60d81b6064820152608401610929565b61112582868684036112d6565b506001949350505050565b6000336107a181858561146e565b6001600160a01b0381166000908152600860209081526040808320805482518185028101850190935280835260609492939192909184015b8282101561127b576000848152602090206040805160808101909152600484029091018054829060ff1660028111156111b1576111b1611e73565b60028111156111c2576111c2611e73565b8152602001600182015481526020016002820180546111e09061210f565b80601f016020809104026020016040519081016040528092919081815260200182805461120c9061210f565b80156112595780601f1061122e57610100808354040283529160200191611259565b820191906000526020600020905b81548152906001019060200180831161123c57829003601f168201915b5050505050815260200160038201548152505081526020019060010190611176565b505050509050919050565b6000828152600560205260409020600101546112a18161161d565b6108b883836116ad565b6001600160a01b03918216600090815260016020908152604080832093909416825291909152205490565b6001600160a01b0383166113385760405162461bcd60e51b8152602060048201526024808201527f45524332303a20617070726f76652066726f6d20746865207a65726f206164646044820152637265737360e01b6064820152608401610929565b6001600160a01b0382166113995760405162461bcd60e51b815260206004820152602260248201527f45524332303a20617070726f766520746f20746865207a65726f206164647265604482015261737360f01b6064820152608401610929565b6001600160a01b0383811660008181526001602090815260408083209487168084529482529182902085905590518481527f8c5be1e5ebec7d5bd14f71427d1e84f3dd0314c0f7b2291e5b200ac8c7c3b925910160405180910390a3505050565b600061140684846112ab565b90506000198114610bd857818110156114615760405162461bcd60e51b815260206004820152601d60248201527f45524332303a20696e73756666696369656e7420616c6c6f77616e63650000006044820152606401610929565b610bd884848484036112d6565b6001600160a01b0383166114d25760405162461bcd60e51b815260206004820152602560248201527f45524332303a207472616e736665722066726f6d20746865207a65726f206164604482015264647265737360d81b6064820152608401610929565b6001600160a01b0382166115345760405162461bcd60e51b815260206004820152602360248201527f45524332303a207472616e7366657220746f20746865207a65726f206164647260448201526265737360e81b6064820152608401610929565b61153f838383611ab1565b6001600160a01b038316600090815260208190526040902054818110156115b75760405162461bcd60e51b815260206004820152602660248201527f45524332303a207472616e7366657220616d6f756e7420657863656564732062604482015265616c616e636560d01b6064820152608401610929565b6001600160a01b03848116600081815260208181526040808320878703905593871680835291849020805487019055925185815290927fddf252ad1be2c89b69c2b068fc378daa952ba7f163c4a11628f55a4df523b3ef910160405180910390a3610bd8565b610b508133611ab9565b6116318282610d0c565b61093c5760008281526005602090815260408083206001600160a01b03851684529091529020805460ff191660011790556116693390565b6001600160a01b0316816001600160a01b0316837f2f8788117e7eff1d82e926ec794901d17c78024a50270940304540a733656f0d60405160405180910390a45050565b6116b78282610d0c565b1561093c5760008281526005602090815260408083206001600160a01b0385168085529252808320805460ff1916905551339285917ff6391f5c32d9c69d2a47ea670b442974b53935d1edc7fd64eb21e047a839171b9190a45050565b61171c611b12565b6007805460ff191690557f5db9ee0a495bf2e6ff9c91a7834c1ba4fdd244a5e8aa4e537bd38aeae4b073aa335b6040516001600160a01b03909116815260200160405180910390a1565b60075460ff16156117ac5760405162461bcd60e51b815260206004820152601060248201526f14185d5cd8589b194e881c185d5cd95960821b6044820152606401610929565b565b6001600160a01b0382166118045760405162461bcd60e51b815260206004820152601f60248201527f45524332303a206d696e7420746f20746865207a65726f2061646472657373006044820152606401610929565b61181060008383611ab1565b8060026000828254611822919061215f565b90915550506001600160a01b038216600081815260208181526040808320805486019055518481527fddf252ad1be2c89b69c2b068fc378daa952ba7f163c4a11628f55a4df523b3ef910160405180910390a35050565b610b5033825b6001600160a01b0382166118df5760405162461bcd60e51b815260206004820152602160248201527f45524332303a206275726e2066726f6d20746865207a65726f206164647265736044820152607360f81b6064820152608401610929565b6118eb82600083611ab1565b6001600160a01b0382166000908152602081905260409020548181101561195f5760405162461bcd60e51b815260206004820152602260248201527f45524332303a206275726e20616d6f756e7420657863656564732062616c616e604482015261636560f01b6064820152608401610929565b6001600160a01b0383166000818152602081815260408083208686039055600280548790039055518581529192917fddf252ad1be2c89b69c2b068fc378daa952ba7f163c4a11628f55a4df523b3ef910160405180910390a3505050565b6119c5611766565b6007805460ff191660011790557f62e78cea01bee320cd4e420270b5ea74000d11b0c9f74754ebdbfc544b05a2586117493390565b600260065403611a4c5760405162461bcd60e51b815260206004820152601f60248201527f5265656e7472616e637947756172643a207265656e7472616e742063616c6c006044820152606401610929565b6002600655565b600080826002811115611a6857611a68611e73565b03611a7c5750678ac7230489e80000919050565b6001826002811115611a9057611a90611e73565b03611aa45750674563918244f40000919050565b506000919050565b919050565b6108b8611766565b611ac38282610d0c565b61093c57611ad081611b5b565b611adb836020611b6d565b604051602001611aec9291906122ce565b60408051601f198184030181529082905262461bcd60e51b825261092991600401611d83565b60075460ff166117ac5760405162461bcd60e51b815260206004820152601460248201527314185d5cd8589b194e881b9bdd081c185d5cd95960621b6044820152606401610929565b60606106fb6001600160a01b03831660145b60606000611b7c836002612343565b611b8790600261215f565b67ffffffffffffffff811115611b9f57611b9f611f71565b6040519080825280601f01601f191660200182016040528015611bc9576020820181803683370190505b509050600360fc1b81600081518110611be457611be4612185565b60200101906001600160f81b031916908160001a905350600f60fb1b81600181518110611c1357611c13612185565b60200101906001600160f81b031916908160001a9053506000611c37846002612343565b611c4290600161215f565b90505b6001811115611cba576f181899199a1a9b1b9c1cb0b131b232b360811b85600f1660108110611c7657611c76612185565b1a60f81b828281518110611c8c57611c8c612185565b60200101906001600160f81b031916908160001a90535060049490941c93611cb38161235a565b9050611c45565b5083156107ca5760405162461bcd60e51b815260206004820181905260248201527f537472696e67733a20686578206c656e67746820696e73756666696369656e746044820152606401610929565b600060208284031215611d1b57600080fd5b81356001600160e01b0319811681146107ca57600080fd5b60005b83811015611d4e578181015183820152602001611d36565b50506000910152565b60008151808452611d6f816020860160208601611d33565b601f01601f19169290920160200192915050565b6020815260006107ca6020830184611d57565b80356001600160a01b0381168114611aac57600080fd5b60008060408385031215611dc057600080fd5b611dc983611d96565b946020939093013593505050565b600080600060608486031215611dec57600080fd5b611df584611d96565b9250611e0360208501611d96565b9150604084013590509250925092565b600060208284031215611e2557600080fd5b5035919050565b60008060408385031215611e3f57600080fd5b82359150611e4f60208401611d96565b90509250929050565b600060208284031215611e6a57600080fd5b6107ca82611d96565b634e487b7160e01b600052602160045260246000fd5b60038110611ea757634e487b7160e01b600052602160045260246000fd5b9052565b611eb6828251611e89565b602081015160208301526000604082015160806040850152611edb6080850182611d57565b606093840151949093019390935250919050565b6020815260006107ca6020830184611eab565b611f0c8186611e89565b836020820152608060408201526000611f286080830185611d57565b905082606083015295945050505050565b602081016106fb8284611e89565b803560038110611aac57600080fd5b600060208284031215611f6857600080fd5b6107ca82611f47565b634e487b7160e01b600052604160045260246000fd5b600080600060608486031215611f9c57600080fd5b611fa584611d96565b9250611fb360208501611f47565b9150604084013567ffffffffffffffff80821115611fd057600080fd5b818601915086601f830112611fe457600080fd5b813581811115611ff657611ff6611f71565b604051601f8201601f19908116603f0116810190838211818310171561201e5761201e611f71565b8160405282815289602084870101111561203757600080fd5b8260208601602083013760006020848301015280955050505050509250925092565b6000602080830181845280855180835260408601915060408160051b870101925083870160005b828110156120ae57603f1988860301845261209c858351611eab565b94509285019290850190600101612080565b5092979650505050505050565b600080604083850312156120ce57600080fd5b6120d783611d96565b9150611e4f60208401611d96565b84815260208101849052608081016121006040830185611e89565b82606083015295945050505050565b600181811c9082168061212357607f821691505b60208210810361214357634e487b7160e01b600052602260045260246000fd5b50919050565b634e487b7160e01b600052601160045260246000fd5b808201808211156106fb576106fb612149565b818103818111156106fb576106fb612149565b634e487b7160e01b600052603260045260246000fd5b6000600182016121ad576121ad612149565b5060010190565b601f8211156108b857600081815260208120601f850160051c810160208610156121db5750805b601f850160051c820191505b818110156110a2578281556001016121e7565b815167ffffffffffffffff81111561221457612214611f71565b61222881612222845461210f565b846121b4565b602080601f83116001811461225d57600084156122455750858301515b600019600386901b1c1916600185901b1785556110a2565b600085815260208120601f198616915b8281101561228c5788860151825594840194600190910190840161226d565b50858210156122aa5787850151600019600388901b60f8161c191681555b5050505050600190811b01905550565b828152604081016107ca6020830184611e89565b7f416363657373436f6e74726f6c3a206163636f756e7420000000000000000000815260008351612306816017850160208801611d33565b7001034b99036b4b9b9b4b733903937b6329607d1b6017918401918201528351612337816028840160208801611d33565b01602801949350505050565b80820281158282048414176106fb576106fb612149565b60008161236957612369612149565b50600019019056fea2646970667358221220bf9fccd0188623f7637b16f156eaa6c4e9bdd9aa93dc27f956304f2383f2feb664736f6c63430008130033",
  "linkReferences": {},
  "deployedLinkReferences": {}
}